:040000000C94FD005F
:100004000C9400000C9400000C9400000C9400006C
:100014000C9400000C9400000C9400000C9400005C
:100024000C9400000C9400000C9400000C9400004C
:100034000C9400000C9400000C9400000C9400003C
:100044000C9400000C9400000C9400000C9400002C
:100054000C9400000C9400000C9400000C9400001C
:100064000C9400000C9400000C9400000C9400000C
:100074000C9400000C9400000C9400000C940000FC
:100084000C9400000C9400001027E80364000A009C
:10009400010000100001100001000100002A3132AB
:1000A400333435363738392A302320202020202095
:1000B400202020202020202020202020202020203C
:1000C4002020202020202020040005002D2D7072E7
:1000D40065737320616E79206B657900746F20738A
:1000E4007461727400203031323334353637383924
:1000F400002A50313D2564002350323D2564004ED2
:100104003D002D3E00696E76616C696420696E70F5
:100114007574006F7574206F662072616E67652058
:10012400696E7075740063686F73656E20626F78B2
:100134002069732074616B656E00756E6B6E6F77EA
:100144006E206572726F7200707265737320616ED7
:1001540079206B6579200A746F20636F6E74696E01
:10016400756500202020202020202020002A3D63C7
:100174006F6E6669726D00232A0080C0040004005B
:100184009E000C00A105A2001E00AD05AE000300F8
:10019400E905CC000200ED05D0000E000005D200F8
:1001A40009000E05E0000C001705E9000300230513
:1001B40003010300260506010E00290509011300A9
:1001C4003705170114004A052A010E005E053E0199
:1001D4001B006C054C010A00870567010A009105A4
:1001E400710103009B057B0103009E057B01020056
:1001F400F4057E010000F894EE27ECBBF1E0F5BFB6
:10020400E5BFE0936C008DE0A2E0BB27ED938A95F7
:10021400E9F780E090E1A0E0B1E0ED930197E9F720
:10022400E0E8F1E085919591009761F0A591B59191
:1002340005901590BF01F00105900D920197E1F72B
:10024400FB01F0CFEFEFEDBFE0E1EEBFC0E0D5E0A2
:100254000C942C01E0E0EABBEBBBEFE1E7BBE0E090
:10026400E8BBEFE1E4BBE0E0E5BBEFE0E1BBE0EFDE
:10027400E2BBE0E0E2B9E3B9E0936100E09362003D
:10028400E0936400E0936500E0BFE3BFE2BFE1BF39
:10029400EFBDEEBDEDBDECBDE7BDE6BDEBBDEABD1A
:1002A400E9BDE8BDE0937900E0937800E5BDE4BDE5
:1002B400E3BDE0938B00E0938A00E0938900E09330
:1002C4008800E0938100E0938000E0938700E0934E
:1002D4008600E0938500E0938400E0938300E0933C
:1002E4008200E7BFE0937D00E0936A00EABFE9BFC4
:1002F400EAB9E0939A00E0E8E8B9E0E0E0BDE6B9E5
:10030400EDB9E0937400A4E10E94680356D0DBD0F9
:1003140000240414050411F4EAE201C0E3E27E2E91
:100324000BD10E9476050E947B05EA0FFB1F7082A9
:1003340061D0A0EDB7E00E94F405E8CFFFCF0E94A2
:10034400460600E010E00430E0E01E07ACF50E9431
:100354008805E095E121E2BB20E030E02330E0E0D5
:100364003E071CF510B2F9013496A1E0B0E00E94FA
:100374000E06A12DB0E0EA23FB23309799F4AAEFEF
:10038400B0E00E94F4050E948805E129E2BBA3E0E5
:10039400A09FF001A19FF00DEF55FA4FE20FF31F5C
:1003A400E08156C02F5F3F4FD9CF0E948805E129D5
:1003B400E2BB0F5F1F4FC7CFC4CFEBECF5E0FA935E
:1003C400EA93EDEAF5E0FA93EA93AEE1B0E00E9435
:1003D4003E050E948E05E3E0EA93A1E038D1A0E057
:1003E400B5E063D1E6E00E949405AEE0B5E00E947A
:1003F400980508950E9446060E949E05A7E1B5E06F
:1004040054D100E010E00330E0E01E07FCF4E0E02B
:10041400EA93A02FAF5F1BD1A02FAF5C31D120E0B6
:1004240030E02A30E0E03E0774F4AAE0A09FF00137
:10043400A19FF00DE553FA4FE20FF31FA08120D1E5
:100444002F5F3F4FEECF0F5F1F4FDDCF0E949E0502
:100454000E944D06249608952697EEE0EA93A0E0C4
:100464000E94A305E5EFF0E0FA93EA93E091E90531
:10047400F091EA050E94A905E091E905E8BBEEE0E8
:10048400EA93A1E00E94A305ECEFF0E0FA93EA936B
:10049400E091EB05F091EC050E94A905E091EB05D4
:1004A400E5BB0E949E050C944E05EFE0EA93A3E0A1
:1004B400CED0A3E2B5E0F9D0E1E1EA93A3E0C7D05E
:1004C400ADEEB5E00CC0D0D095DFC6DFEEDF01D0D5
:1004D40007C0ECE0EA93A42DBAD0A6E2B5E0E5D0DB
:1004E400E0E0EA93A0E0B3D00895BA93AA930E94FF
:1004F4008E05E881F981E130A0E0FA0719F4A9E258
:10050400B5E010C0E230A0E0FA0719F4A7E3B5E0C3
:1005140009C0E330A0E0FA0719F4AAE4B5E002C088
:10052400AEE5B5E0C2D0E0E00E949405ACE6B5E0EB
:100534000E949805C8DF96C0EDE2E093ED050E94A5
:10054400B405A7E8B5E0B1D0FADEE093ED05ADDF80
:10055400F6DE0E94B405A1E9B5E0A7D00E949E058D
:10056400EEDEEA3249F703D0E13031F70895EBE9E2
:10057400F5E0FA93EA93A091ED050E9450053097B7
:1005840051F4EEE9F5E0FA93EA93A091EE050E94A6
:100594005005309711F0A1E034C0E091ED05F0E092
:1005A400F097E093F005F093F105E091EE05F0E0AB
:1005B400F097E093F205F093F3050E947605AAE024
:1005C400B0E00E942406DF01E091F205F091F3050A
:1005D400EA0FFB1F4F01EAE0F0E08E169F062CF0B5
:1005E400E7E2F0E0E815F90514F4A2E00AC00E947D
:1005F40076050E947B05AE0FBF1FAC91A03229F097
:10060400A3E0B0E072DFE0E00895E1E00895AA938A
:10061400EBB3EF70AE2FE881E07FEA2BEBBB8DE00C
:100624008A95F1F7DA9A8DE08A95F1F7DA988DE0F8
:100634008A95F1F777C0AA93A881E9DFE881E2956A
:10064400E883A881E4DF85E88A95F1F76BC0AA9373
:10065400E881F0E0EC50FA4FE081A981AE0FEBDFC6
:100664006980B88022960895A2E00E94BA05ACE0A1
:10067400E2DFA1E00E94BA05E0E0BE2E6E2E0895EE
:10068400AA93A881AA3011F06A1448F0E0E0EA9332
:10069400B394AB2DDCDFA881AA3009F443C0639482
:1006A400D89AA881C8DFD8983DC0BA93AA931A9360
:1006B400A981BA81ED91A983BA831E2FE03019F084
:1006C400A12FDEDFF5CF188123960895AA93EAB30C
:1006D400E06FEABBD29AD09AD19ADA98D898D9988E
:1006E400A880E881E058E093F605E881E054E093BF
:1006F400F705A4E1B0E00E94F4050E94C0050E9441
:10070400C0050E94C005A0E282DF88EC90E001975A
:10071400F1F7A8E290DFA4E08EDFA5E88CDFA6E085
:100724008ADFA2DF21960895BA93AA931A930A93B3
:10073400AA81BB8112960E943706309759F1AA818B
:10074400BB8114960E9437068F01309761F0023006
:10075400E0E01E0798F0F80131978F01AA81BB8170
:100764001496ED93FC93AA81BB811296ED91FD91B1
:100774003196FE93EE933197AC81A083AA81BB811D
:100784000E943706FF232AF0ED91FD913196FE93E6
:10079400EE9306C0AA81BB81EFEFFFEFED93FC93CC
:1007A4001981088125960895BA93AA9326970E94E1
:1007B400440610E0AC85BD85E0E0F0E0ED93FC93E9
:1007C400EA89FB893196EA8BFB8B3197E4912E2FD2
:1007D400E03009F415C1E12FE03039F4253211F489
:1007E40011E002C00E94C8050AC1E130A9F4253213
:1007F40019F40E94C80502C112E040E000E02D3265
:1008040011F401E0FCC02B3211F44BE2F8C02032A9
:1008140011F440E2F4C002C0E23039F450E013E0D5
:10082400203311F40068EBC003C0E33009F0E7C0E3
:10083400203310F02A3308F007C0AAE05A9F502D45
:10084400E22FE0535E0FDBC0E22FE33649F40E944F
:10085400CF05E889F989A481AA930E94D505CEC061
:10086400E33741F40E94CF050E94DB050E945D0539
:100874001E2F0AC0E03761F40E94CF050E94DB05F9
:100884000E9469051E2F086002600F7730E034C0B3
:10089400E43611F0E93611F4046002C0E53731F4AE
:1008A400ECE8F0E0EE83FF8315E00CC0E83511F4CA
:1008B400086003C0E83709F0A1C0E6E9F0E0EE8380
:1008C400FF8314E002FF14C00E94CF050E94E505D7
:1008D400AB85AA233AF4EA85FB850E940206EA87DF
:1008E400FB874DE2403011F01F5F01C00B7F04C055
:1008F4000E94CF050E94E50500FD11C0151778F48C
:1009040007FF08C002FF04C00B7F242F115001C051
:1009140020E301C020E20E94C8055150EFCF312FDF
:1009240001FF17C03030A1F003FF06C0EE81FF8144
:100934002591EE83FF8305C0AE81BF812D91AE83E7
:10094400BF830E94C805503009F051503150EACF9E
:100954004BC020E3EE81FF810E943B06E887F987C4
:10096400EE81FF813296EE83FF83E885F985AA85BF
:10097400BB85AE17BF0750F02F5FA885B985EA8500
:10098400FB85EA1BFB0BEA87FB87EFCF2A3328F0B2
:1009940003FF02C0295F01C0295D04FD1AC0213391
:1009A40020F4A885B985119709F409C0531710F0EC
:1009B40000FF01C013C020E207FF0BC020E3006169
:1009C40002FF07C00B7F4A930E94D505503009F0FF
:1009D40051500E94C805503009F051503150A8853B
:1009E400B985129708F0B5CF00FF08C0503031F038
:1009F4005150E0E2EA930E94D505F8CF10E0E0CE32
:100A0400AC85BD850E9437060E944B066496089506
:100A1400FF92F82E26970E9446060E94ED05309715
:100A240019F4EFEFFFEF23C0DE0116960E94FE05D6
:100A34008D010E94ED05EE83FF83E0E0E887E987FE
:100A4400DE011A960E94FE050E943706FA93EA9385
:100A54001A930A93E6E9F3E0FA93EA93DE011A960D
:100A6400A3DE9F01AE81BF81E0E0EC93F9010E9417
:100A74004D062A96FF900895BA93AA939981888186
:100A8400009641F0BD81AC81FB81EA8161916D9357
:100A94000197E1F7FD81EC8126960895AA93A99127
:100AA400E991F991B081AB1729F03196BB23D1F7C5
:100AB400EE27FF270895BA93AA93A991B991EE2737
:100AC400FF276D91662311F03196FBCF0895BA93F9
:100AD400AA93AA27BB27E991F9910590002011F068
:100AE4001196FBCFFD010895E091F005F091F10519
:100AF40008953197AAE0B0E00E941C06E553FA4F2E
:100B0400DF01E091F205F091F305089512B2E02FB0
:100B1400A1E00E94060608950E943603E0E0E8BBC7
:100B2400E5BB0895EA93A2E00C9429030E945703BD
:100B34000E94A1010C943603E0E0EA93A0E00C9437
:100B440029030E942903FE01FA93EA9308950E945F
:100B540017060E943F0684E00E940A052896DE01DB
:100B64000C945703E093EE050E945702EBE0DACFB2
:100B74000E941D03A3E0B0E00C94F405A0E30E94DE
:100B8400090388EC90E00197F1F708952A93AD8565
:100B9400BE85EF85F88909950895E889F989349720
:100BA400E88BF98B0895AD85BE85EF85F8890995A5
:100BB4000895A889B98914960E943706EE83FF83A5
:100BC400AE81BF810895A889B98914960E94370619
:100BD400EA87FB870895DE011C960E94FE050E94A9
:100BE40037060895109639F0A89580ED97E001979F
:100BF400F1F71197C9F708950024AF0DB01D0895BA
:100C0400F195E195F0400895EE230E2EEA2F19F0A8
:100C1400EE0F0A94E9F70895EE230E2EFD0121F05C
:100C2400EE0FFF1F0A94E1F708956F2F660F660B0E
:100C3400762F0895FA9FF02DEB9FF00DEA9FE02D9B
:100C4400F10D089504D0F6DF0EF4DADF0895E89488
:100C5400F7FF02C0D5DF6894B7FF06C0A095B09532
:100C6400119600F8039400FA0895ED91FC91119700
:100C740008950590F491E02D08957A936A93FA9378
:100C8400EA9308955A934A933A932A931A930A93A8
:100C940008955D814C813B812A81198108810895E1
:00000001FF
