:080000000C9409010C940000AE
:100008000C9400000C9400000C9400000C94000068
:100018000C9400000C9400000C9400000C94000058
:100028000C9400000C9400000C9400000C94000048
:100038000C9400000C9400000C9400000C94000038
:100048000C9400000C9400000C9400000C94000028
:100058000C9400000C9400000C9400000C94000018
:100068000C9400000C9400000C9400000C94000008
:100078000C9400000C9400000C9400000C940000F8
:100088000C9400001027E80364000A000100001027
:1000980000011000010000003132333435363738A2
:1000A800392A302320202020202020202020202012
:1000B8002020202020202020202020202020202038
:1000C8002020FFFFFFFFFFFF00000000FFFF41426D
:1000D8002D2D707265737320616E79206B657900C0
:1000E800746F207374617274002030313233343588
:1000F80036373839002A50313D2564002350323DC7
:100108002564004E3D002D3E00202000696E76617A
:100118006C696420696E707574006F7574206F6601
:100128002072616E676520696E7075740063686F10
:1001380073656E20626F782069732074616B656ED9
:1001480000756E6B6E6F776E206572726F720070DD
:100158007265737320616E79206B6579200A746FFC
:1001680020636F6E74696E75650020202020202042
:10017800202020002A3D636F6E6669726D00232A75
:10018800000080C0020004009E000C00A405A0002E
:100198001E00B005AC000C00EC05CA000200000609
:1001A800D60002000206D8000E000005DA00090099
:1001B8000E05E8000C001705F100030023050B01EC
:1001C800030026050E010300290511010E002C0568
:1001D800140113003A05220114004D0535010E00E3
:1001E800610549011B006F0557010A008A05720164
:1001F8000A0094057C0103009E0586010300A10501
:100208008601020009068A010000F894EE27ECBB7B
:10021800F1E0F5BFE5BFE0936C008DE0A2E0BB27FD
:10022800ED938A95E9F780E090E1A0E0B1E0ED93E5
:100238000197E9F7ECE8F1E085919591009761F075
:10024800A591B59105901590BF01F00105900D920B
:100258000197E1F7FB01F0CFEFEFEDBFE0E1EEBF73
:10026800C0E0D5E00C943801E0E0EABBEBBBEFE17D
:10027800E7BBE0E0E8BBEFE1E4BBE0E0E5BBEFE0D3
:10028800E1BBE0EFE2BBE0E0E2B9E3B9E093610093
:10029800E0936200E0936400E0936500E0BFE3BF91
:1002A800E2BFE1BFEFBDEEBDEDBDECBDE7BDE6BD14
:1002B800EBBDEABDE9BDE8BDE0937900E0937800C5
:1002C800E5BDE4BDE3BDE0938B00E0938A00E093D5
:1002D8008900E0938800E0938100E0938000E09338
:1002E8008700E0938600E0938500E0938400E09324
:1002F8008300E0938200E7BFE0937D00E0936A000B
:10030800EABFE9BFEAB9E0939A00E0E8E8B9E0E0BB
:10031800E0BDE6B9EDB9E0937400A4E10E943204AF
:1003280061D0E1D01DD2E030E9F4002404140504C2
:1003380011F4EAE201C0E3E27E2EDBD016D10E947E
:100348003A060E943F06EA0FFB1F708280D1E03018
:1003580031F4E1E0F0E0E419F5092F0101C08CD097
:1003680060D0E0CFDDCFFFCF0E94480700E010E06B
:100378000430E0E01E07ACF50E944C06E095E12150
:10038800E2BB20E030E02330E0E03E071CF510B28D
:10039800F9013496A1E0B0E00E940B07A12DB0E06E
:1003A800EA23FB23309799F4AAEFB0E00E94F10604
:1003B8000E944C06E129E2BBA3E0A09FF001A19FA7
:1003C800F00DEC55FA4FE20FF31FE081E4C12F5F07
:1003D8003F4FD9CF0E944C06E129E2BB0F5F1F4F68
:1003E800C7CFC4CFEEECF5E0FA93EA93E0EBF5E083
:1003F800FA93EA93AEE1B0E00E9402060E94520628
:10040800E3E0EA93A1E00E94F303A0E0B5E00E94D4
:100418002104E6E00E945806AEE0B5E00E945C06C2
:1004280008950E9448070E946206A7E1B5E00E946D
:10043800210400E010E00330E0E01E07D4F4E0E01F
:10044800EA93A02FAF5F0E94F303A02FAF5C0E9436
:100458000C0420E030E02A30E0E03E073CF40E9443
:1004680067060E940C042F5F3F4FF5CF0F5F1F4FA9
:10047800E2CF0E9462068FC12697EEE0EA93A0E0E1
:100488000E947206EDEFF0E0FA93EA93E091FC0522
:10049800F091FD050E947806E091FC05E8BBEEE0CE
:1004A800EA93A1E00E947206E4E0F1E0FA93EA938D
:1004B800E091FE05F091FF050E947806E091FE05A7
:1004C800E5BB0E9462060C941206EFE0EA93A3E0F3
:1004D80086D1A3E2B5E0B1D1E1E1EA93A3E07FD10F
:1004E800A2E0B6E015C088D19CDFC6DFEEDF01D000
:1004F80010C0ECE0EA93A42D72D1A6E2B5E09DD13C
:10050800ECE0EA93E1E0E419AE2F69D1A9E2B5E0A5
:1005180094D1E0E0EA93A0E062D10895BA93AA9357
:100528000E945206E881F981E130A0E0FA0719F447
:10053800ACE2B5E010C0E230A0E0FA0719F4AAE393
:10054800B5E009C0E330A0E0FA0719F4ADE4B5E07E
:1005580002C0A1E6B5E071D1E0E00E945806AFE61E
:10056800B5E00E945C06BFDF45C10E948306ADDF8F
:10057800EBE00E945806AAE8B5E05FD1F5DEE0930B
:100588000206A3DFF1DEE09303069FDFEBE00E94A3
:100598005806A4E9B5E051D10E946206E5DEEA32C8
:1005A80021F705D0E13009F70E9483060895EEE9A6
:1005B800F5E0FA93EA93A09102060E941406309798
:1005C80051F4E1EAF5E0FA93EA93A09103060E9458
:1005D8001406309711F0A1E034C0E0910206F0E073
:1005E800F097E0930506F0930606E0910306F0E025
:1005F800F097E0930706F09308060E943A06AAE0EF
:10060800B0E00E942607DF01E0910706F091080696
:10061800EA0FFB1F4F01EAE0F0E08E169F062CF070
:10062800E7E2F0E0E815F90514F4A2E00AC00E9438
:100638003A060E943F06AE0FBF1FAC91A03229F0C8
:10064800A3E0B0E06BDFE0E00895E1E008952297D1
:100658000E944607E0910506E1503E2FE09107060B
:100668002E2F00E010E00430E0E01E070CF073C00D
:10067800032E0E948906AE0FBF1F0E943907E00DA6
:10068800F11DAF01022E0E948906AE0FBF1F129600
:100698000E943907E00DF11DEE83FF8355235AF0C0
:1006A8004230E0E05E073CF4AF81AA2322F0AE813D
:1006B800BF8119970CF04CC00E9490060E949806C2
:1006C80069F40E949F0651F40E94A8060E949806A9
:1006D80029F40E94A8060E949F0609F039C0F20179
:1006E800ACEFB5E0EE0FFF1FAE0FBF1F0E94B106C3
:1006F8000E9490060F01AE81BF81EA0FFB1FFF9396
:10070800EF93D001EE81FF813196EA0FFB1FCF01F5
:100718000E94A806AE81BF81EA0FFB1FBF010E949D
:10072800A806DF01EE81FF813196EA0FFB1F0F015A
:10073800A0E0B6E0A40DB51DEC91D001EC93DB016F
:10074800EC93DC01EC93AF91BF91EC93E1E004C032
:100758000F5F1F4F88CFE0E00E944D07289608954D
:100768000E94480700E010E00430E0E01E0794F41F
:1007780020E030E02A30E0E03E074CF40E946706B3
:10078800A03211F4E0E007C02F5F3F4FF3CF0F5FB7
:100798001F4FEACFE1E00E944F0724960895AA93DD
:1007A800EBB3EF70AE2FE881E07FEA2BEBBB8DE077
:1007B8008A95F1F7DA9A8DE08A95F1F7DA988DE063
:1007C8008A95F1F777C0AA93A881E9DFE881E295D5
:1007D800E883A881E4DF85E88A95F1F76BC0AA93DE
:1007E800E881F0E0E75FF94FE081A981AE0FEBDF28
:1007F8006980B88022960895A2E00E94B706ACE00E
:10080800E2DFA1E00E94B706E0E0BE2E6E2E08955A
:10081800AA93A881AA3011F06A1448F0E0E0EA939C
:10082800B394AB2DDCDFA881AA3009F443C06394EC
:10083800D89AA881C8DFD8983DC0BA93AA931A93CA
:10084800A981BA81ED91A983BA831E2FE03019F0EE
:10085800A12FDEDFF5CF188123960895AA93EAB376
:10086800E06FEABBD29AD09AD19ADA98D898D998F8
:10087800A880E881E058E0930B06E881E054E09313
:100888000C06A4E1B0E00E94F1060E94BD060E9499
:10089800BD060E94BD06A0E282DF88EC90E00197C9
:1008A800F1F7A8E290DFA4E08EDFA5E88CDFA6E0F0
:1008B8008ADFA2DF21960895BA93AA931A930A931E
:1008C800AA81BB8112960E943907309729F1AA8123
:1008D800BB8114960E9439078F01309761F002306E
:1008E800E0E01E0780F0F80131978F01AA81BB81F3
:1008F8001496ED93FC93AA81BB8112960E94B106CF
:100908003197AC81A083AA81BB810E943907FF235C
:1009180012F00E94B10606C0AA81BB81EFEFFFEF7B
:10092800ED93FC931981088125960895BA93AA93AB
:1009380026970E94460710E0AC85BD85E0E0F0E010
:10094800ED93FC93EA89FB893196EA8BFB8B31970F
:10095800E4912E2FE03009F415C1E12FE03039F48D
:10096800253211F411E002C00E94C5060AC1E13027
:10097800A9F4253219F40E94C50602C112E040E02C
:1009880000E02D3211F401E0FCC02B3211F44BE2EF
:10099800F8C0203211F440E2F4C002C0E23039F469
:1009A80050E013E0203311F40068EBC003C0E330DB
:1009B80009F0E7C0203310F02A3308F007C0AAE096
:1009C8005A9F502DE22FE0535E0FDBC0E22FE33633
:1009D80049F40E94CC06E889F989A481AA930E9467
:1009E800D206CEC0E33741F40E94CC060E94D80656
:1009F8000E9421061E2F0AC0E03761F40E94CC062F
:100A08000E94D8060E942D061E2F086002600F77EC
:100A180030E034C0E43611F0E93611F4046002C065
:100A2800E53731F4ECE8F0E0EE83FF8315E00CC025
:100A3800E83511F4086003C0E83709F0A1C0E6E919
:100A4800F0E0EE83FF8314E002FF14C00E94CC069E
:100A58000E94E206AB85AA233AF4EA85FB850E9448
:100A6800FF06EA87FB874DE2403011F01F5F01C0A7
:100A78000B7F04C00E94CC060E94E20600FD11C054
:100A8800151778F407FF08C002FF04C00B7F242F56
:100A9800115001C020E301C020E20E94C506515058
:100AA800EFCF312F01FF17C03030A1F003FF06C090
:100AB800EE81FF812591EE83FF8305C0AE81BF8162
:100AC8002D91AE83BF830E94C506503009F0515066
:100AD8003150EACF4BC020E3EE81FF810E943D07F1
:100AE800E887F987EE81FF813296EE83FF83E885F8
:100AF800F985AA85BB85AE17BF0750F02F5FA8857B
:100B0800B985EA85FB85EA1BFB0BEA87FB87EFCFF4
:100B18002A3328F003FF02C0295F01C0295D04FDC4
:100B28001AC0213320F4A885B985119709F409C0A2
:100B3800531710F000FF01C013C020E207FF0BC0DD
:100B480020E3006102FF07C00B7F4A930E94D20690
:100B5800503009F051500E94C506503009F05150EC
:100B68003150A885B985129708F0B5CF00FF08C0A5
:100B7800503031F05150E0E2EA930E94D206F8CFAB
:100B880010E0E0CEAC85BD850E9439070E944D0774
:100B980064960895FF92F82E26970E9448070E94AF
:100BA800EA06309719F4EFEFFFEF23C0DE0116963F
:100BB8000E94FB068D010E94EA06EE83FF83E0E0B7
:100BC800E887E987DE011A960E94FB060E9439072A
:100BD800FA93EA931A930A93E0E6F4E0FA93EA9315
:100BE800DE011A96A3DE9F01AE81BF81E0E0EC939F
:100BF800F9010E944F072A96FF900895BA93AA9385
:100C080099818881009641F0BD81AC81FB81EA81A0
:100C180061916D930197E1F7FD81EC812696089526
:100C2800AA93A991E991F991B081AB1729F031966E
:100C3800BB23D1F7EE27FF270895BA93AA93A9916A
:100C4800B991EE27FF276D91662311F03196FBCFFE
:100C58000895BA93AA93AA27BB27E991F991059019
:100C6800002011F01196FBCFFD010895E0910506D3
:100C7800F091060608953197AAE0B0E00E941E0799
:100C8800E253FA4FDF01E0910706F0910806089554
:100C980012B2E02FA1E00E94030708950E94000409
:100CA800E0E0E8BBE5BB0895EA93A2E00C94F30307
:100CB8000E9421040E94B8010C940004E0E0EA9329
:100CC800A0E00C94F303AAE0A09FF001A19FF00D0F
:100CD800E253FA4FE20FF31FA08108950E94F30335
:100CE800FE01FA93EA9308950E9419070E944107AA
:100CF80084E00E94CE052896DE010C942104EDE2E2
:100D0800E0930206E093030608951124F801ACEE7F
:100D1800B5E00E9414070895AAE0A49FF001A59FDA
:100D2800F00DE253FA4F0895AE81BF81AE0FBF1F99
:100D3800AC917A160895DF01EE81FF813196AE0FEE
:100D4800BF1FAC917A160895FA013196AAE0B0E077
:100D58000E941E07E253FA4F0895ED91FD913196D6
:100D6800FE93EE9308950E94E703A3E0B0E00C948D
:100D7800F106A0E30E94D30388EC90E00197F1F715
:100D880008952A93AD85BE85EF85F889099508955C
:100D9800E889F9893497E88BF98B0895AD85BE8584
:100DA800EF85F88909950895A889B98914960E944C
:100DB8003907EE83FF83AE81BF810895A889B98979
:100DC80014960E943907EA87FB870895DE011C966E
:100DD8000E94FB060E9439070895109639F0A895DD
:100DE80080ED97E00197F1F71197C9F7089500246E
:100DF800AF0DB01D0895F195E195F0400895EE23EB
:100E08000E2EEA2F19F0EE0F0A94E9F70895EE2353
:100E18000E2EFD0121F0EE0FFF1F0A94E1F7089551
:100E2800EE0FFF1FEE0FFF1F08956F2F660F660B63
:100E3800762F0895FA9FF02DEB9FF00DEA9FE02D95
:100E4800F10D089504D0F6DF0EF4D5DF0895E89487
:100E5800F7FF02C0D0DF6894B7FF06C0A095B09531
:100E6800119600F8039400FA0895ED91FC911197FA
:100E780008950590F491E02D08957A936A93FA9372
:100E8800EA9308955A934A933A932A931A930A93A2
:100E980008955D814C813B812A81198108810895DB
:00000001FF
