:0A0000000C943B010C9400000C94DA
:10000A0000000C9400000C9400000C9400000C9466
:10001A0000000C9400000C9400000C9400000C9456
:10002A0000000C9400000C9400000C9400000C9446
:10003A0000000C9400000C9400000C9400000C9436
:10004A0000000C9400000C9400000C9400000C9426
:10005A0000000C9400000C9400000C9400000C9416
:10006A0000000C9400000C9400000C9400000C9406
:10007A0000000C9400000C9400000C9400000C94F6
:10008A0000001027E80364000A00010000100001C4
:10009A001000010000003132333435363738392A3E
:1000AA003023202020202020202020202020202033
:1000BA002020202020202020202020202020202036
:1000CA00FFFFFFFFFFFF00000000FFFF41422D2D51
:1000DA0053616465676869616E0070726573732045
:1000EA00616E79206B657900746F20737461727424
:1000FA0000203031323334353637383900412A500E
:10010A00313D256400422350323D2564004E3D00B6
:10011A002D3E00202000696E76616C696420696E4C
:10012A00707574006F7574206F662072616E6765F2
:10013A0020696E7075740063686F73656E20626FF4
:10014A00782069732074616B656E00756E6B6E6FD3
:10015A00776E206572726F720070726573732061B8
:10016A006E79206B6579200A746F20636F6E7469EB
:10017A006E756500202020202020202020002A3DA6
:10018A00636F6E6669726D00232A005031206973AD
:10019A002077696E6E65722100503220697320776C
:1001AA00696E6E65722100206D61746368207469DE
:1001BA006564210080C0020004009E000C00F7055F
:1001CA00A0001E000306AC000C003F06CA00020095
:1001DA005306D60002005506D8000A000005DA00C8
:1001EA000E000A05E40009001805F2000C002105BA
:1001FA00FB0003002D051701030030051A01030057
:10020A0033051D010E0036052001130044052E0199
:10021A001400570541010E006B0555011B007905B5
:10022A0063010A0094057E010A009E058801030005
:10023A00A80592010300AB0592010E00AE059501D7
:10024A000E00BC05A3010D00CA05B1010E00D705B9
:10025A00E4000C00E50572010300F1051D0103002D
:10026A00F4051D0102005C06BE010000F894EE27A9
:10027A00ECBBF1E0F5BFE5BFE0936C008DE0A2E0D6
:10028A00BB27ED938A95E9F780E090E1A0E0B1E021
:10029A00ED930197E9F7E0ECF1E0859195910097EC
:1002AA0061F0A591B59105901590BF01F0010590F7
:1002BA000D920197E1F7FB01F0CFEFEFEDBFE0E11F
:1002CA00EEBFC0E0D5E00C946A01E0E0EABBEBBB0C
:1002DA00EFE1E7BBE0E0E8BBEFE1E4BBE0E0E5BB70
:1002EA00EFE0E1BBE0EFE2BBE0E0E2B9E3B9E093C3
:1002FA006100E0936200E0936400E0936500E0BF70
:10030A00E3BFE2BFE1BFEFBDEEBDEDBDECBDE7BDB2
:10031A00E6BDEBBDEABDE9BDE8BDE0937900E09337
:10032A007800E5BDE4BDE3BDE0938B00E0938A006D
:10033A00E0938900E0938800E0938100E0938000D5
:10034A00E0938700E0938600E0938500E0938400C1
:10035A00E0938300E0938200E7BFE0937D00E0939F
:10036A006A00EABFE9BFEAB9E0939A00E0E8E8B9AF
:10037A00E0E0E0BDE6B9EDB9E0937400A4E10E94C3
:10038A00410562D004D176D2E030D9F400240414B5
:10039A00050411F4EAE201C0E3E27E2EFFD045D162
:1003AA000E9449070E944E07EA0FFB1F7082B2D1D2
:1003BA00E03029F4E1E0F0E0E419F5092F017DD0FD
:1003CA00E2CF78D2DECFFFCF0E94910800E010E0A2
:1003DA000430E0E01E07BCF50E945B07E095E121CE
:1003EA00E2BB20E030E02330E0E03E072CF510B21B
:1003FA00F9013496A1E0B0E00E944E08A12DB0E0C8
:10040A00EA23FB233097A9F4AAEFB0E00E9434084C
:10041A000E945B07E129E2BBA3E0A09FF001A19F34
:10042A00F00DE950FA4FE20FF31FE0810E9498089D
:10043A00C2C22F5F3F4FD7CF0E945B07E129E2BBC1
:10044A000F5F1F4FC5CFC2CF0E940F05E1E2F6E052
:10045A00FA93EA93E3E0F6E0FA93EA93AEE1B0E0C6
:10046A000E941107E0E0E8BBE5BBE0E0F0E0E093C2
:10047A005A06F0935B06E0935806F0935906E09308
:10048A005106F0935206E0934F06F0935006442427
:10049A005524E6E00E946107A0E0B5E00E9430051D
:1004AA00E4E00E946507AAE0B5E00E943005E6E0B4
:1004BA000E946907A8E1B5E027C20E949108E0E01E
:1004CA000E946107A1E2B5E00E94300500E010E059
:1004DA000330E0E01E07D4F4E0E0EA93A02FAF5F18
:1004EA000E940205A02FAF5C0E941B0520E030E0AD
:1004FA002A30E0E03E073CF40E946D070E941B058B
:10050A002F5F3F4FF5CF0F5F1F4FE2CFE0E00E9412
:10051A0061070E9498084FC22697EDE00E94610782
:10052A00FE01FA93EA93E7E0F1E0FA93EA93E091A5
:10053A004F06F09150060E947807E0914F06E8BBFB
:10054A00EDE00E946507FE01FA93EA93EFE0F1E01D
:10055A00FA93EA930E9483070E947807E091510672
:10056A00E5BBE0E00E9461070C942107EFE0EA9303
:10057A00A3E00E940205ADE2B5E00E943005E1E188
:10058A00EA93A3E00E940205A5E5B6E019C00E941D
:10059A000F0593DFC1DFEADF01D014C0EBE0EA9375
:1005AA00A42D0E940205A0E3B5E00E943005EBE00D
:1005BA00EA93E1E0E419AE2F0E940205A3E3B5E055
:1005CA000E943005E0E00E9461070895BA93AA9359
:1005DA000E940F05E0E0E8BBE5BBE881F981E13064
:1005EA00A0E0FA0719F4A6E3B5E010C0E230A0E0F3
:1005FA00FA0719F4A4E4B5E009C0E330A0E0FA0769
:10060A0019F4A7E5B5E002C0ABE6B5E00E943005F3
:10061A00E0E00E946907A9E7B5E00E943005D4DE50
:10062A000E940F05B4DF0C940D050E9488079EDF17
:10063A00EBE00E946907A4E9B5E00E943005C4DE38
:10064A00E093550693DFC0DEE09356068FDFEBE0BA
:10065A000E946907AEE9B5E00E943005E0E00E9419
:10066A006107B2DEEA3209F705D0E130F1F60E94FD
:10067A0088070895E8EAF5E0FA93EA93A091550607
:10068A000E942307309751F4EBEAF5E0FA93EA93D4
:10069A00A09156060E942307309711F0A1E034C0BA
:1006AA00E0915506F0E0F097E0935806F09359066A
:1006BA00E0915606F0E0F097E0935A06F0935B0655
:1006CA000E944907AAE0B0E00E946F08DF01E091AA
:1006DA005A06F0915B06EA0FFB1F4F01EAE0F0E0D1
:1006EA008E169F062CF0E7E2F0E0E815F90514F4FF
:1006FA00A2E00AC00E9449070E944E07AE0FBF1F20
:10070A00AC91A03229F0A3E0B0E060DFE0E0089508
:10071A00E1E008952397E0E0E8830E948F08E091E2
:10072A005806E1503E2FE0915A062E2F00E010E0C5
:10073A000430E0E01E070CF098C0032E0E948E07DA
:10074A00AE0FBF1F0E948208E00DF11DAF01022EFD
:10075A000E948E07AE0FBF1F12960E948208E00DFC
:10076A00F11DEF83F88755235AF04230E0E05E0727
:10077A003CF4A885AA2322F0AF81B88519970CF01A
:10078A0071C00E949507BF010E949D07AC917A161D
:10079A0029F00E949D070E94A207F9F40E94AA0765
:1007AA00AC917A1629F00E94AA070E94A207A9F41E
:1007BA000E94B107AC917A1629F00E94B1070E94F3
:1007CA00A20759F40E94BA07AC917A1629F00E943E
:1007DA00BA070E94A20709F401C044C0F201AFE4BB
:1007EA00B6E0EE0FFF1FAE0FBF1F0E94C9075A9354
:1007FA004A93A985BA858CD00E9495070F01AF81CB
:10080A00B885EA0FFB1FFF93EF93D001EF81F885BC
:10081A003196EA0FFB1FCF010E94CF07AF81B8853F
:10082A00EA0FFB1FBF010E94CF07DF01EF81F885A6
:10083A003196EA0FFB1F0F01A3E5B6E0A40DB51D23
:10084A00EC91D001EC93DB01EC93DC01EC93AF91DA
:10085A00BF91EC935A934A93A985BA858ED05CDEF0
:10086A00E1E0EE830F5F1F4F63CFEE810E9496088F
:10087A00299608950E94910800E010E00430E0E013
:10088A001E07A4F420E030E02A30E0E03E075CF4E2
:10089A000E946D07A03221F4E0E00E9498088BC004
:1008AA002F5F3F4FF1CF0F5F1F4FE8CFE1E00E946C
:1008BA00980881C0AFD0E4E00E9461070E948307D4
:1008CA00A0914F06B0915006EA17FB071CF4AEEA56
:1008DA00B5E00EC00E948307A0914F06B091500662
:1008EA00AE17BF071CF4ACEBB5E002C0AAECB5E04A
:1008FA00B2D0E4E00E946507A7EDB5E0ACD0E5E030
:10090A000E946907A5EEB5E0A6D05EDD83D0089502
:10091A00BA93AA931A930A9300E010E00330E0E036
:10092A001E0724F5EC81FD81FA93EA93AC81BD811F
:10093A0024D0ACE2B1E00E943408EA81EF5FEA9386
:10094A00AD81AF5F5AD0A1EFB5E085D0EA81EF5F04
:10095A00EA93AD81AE5F51D0A4EFB5E07CD0ACE2B2
:10096A00B1E00E9434080F5F1F4FD8CFE0E00E9429
:10097A006107198108810C942107BA93AA93E88127
:10098A00EF5FEA93AB81AF5F38D00E94D8070E942D
:10099A00E0070E94D8070E94E707E881EF5FEA9321
:1009AA00AB81AE5F2AD00E94F0070E94E0070E9446
:1009BA00F0070E94E70724960895AA93EBB3EF7015
:1009CA00AE2FE881E07FEA2BEBBB8DE08A95F1F749
:1009DA00DA9A8DE08A95F1F7DA988DE08A95F1F73F
:1009EA0077C0AA93A881E9DFE881E295E883A88124
:1009FA00E4DF85E88A95F1F76BC0AA93E881F0E015
:100A0A00E45AF94FE081A981AE0FEBDF6980B88023
:100A1A0022960895A2E00E94FA07ACE0E2DFA1E084
:100A2A000E94FA07E0E0BE2E6E2E0895AA93A881CE
:100A3A00AA3011F06A1448F0E0E0EA93B394AB2DBF
:100A4A00DCDFA881AA3009F443C06394D89AA8814C
:100A5A00C8DFD8983DC0BA93AA931A93A981BA81DC
:100A6A00ED91A983BA831E2FE03019F0A12FDEDFA2
:100A7A00F5CF188123960895AA93EAB3E06FEABBEB
:100A8A00D29AD09AD19ADA98D898D998A880E88137
:100A9A00E058E0935E06E881E054E0935F06A4E143
:100AAA00B0E00E9434080E9400080E9400080E94D8
:100ABA000008A0E282DF88EC90E00197F1F7A8E253
:100ACA0090DFA4E08EDFA5E88CDFA6E08ADFA2DF54
:100ADA0021960895BA93AA931A930A93AA81BB817D
:100AEA0012960E948208309729F1AA81BB81149636
:100AFA000E9482088F01309761F00230E0E01E0701
:100B0A0080F0F80131978F01AA81BB811496ED9389
:100B1A00FC93AA81BB8112960E94C9073197AC81C6
:100B2A00A083AA81BB810E948208FF2312F00E943F
:100B3A00C90706C0AA81BB81EFEFFFEFED93FC93D3
:100B4A001981088125960895BA93AA9326970E9437
:100B5A008F0810E0AC85BD85E0E0F0E0ED93FC93F2
:100B6A00EA89FB893196EA8BFB8B3197E4912E2F28
:100B7A00E03009F415C1E12FE03039F4253211F4DF
:100B8A0011E002C00E9408080AC1E130A9F4253226
:100B9A0019F40E94080802C112E040E000E02D3278
:100BAA0011F401E0FCC02B3211F44BE2F8C0203200
:100BBA0011F440E2F4C002C0E23039F450E013E02C
:100BCA00203311F40068EBC003C0E33009F0E7C03A
:100BDA00203310F02A3308F007C0AAE05A9F502D9C
:100BEA00E22FE0535E0FDBC0E22FE33649F40E94A6
:100BFA000F08E889F989A481AA930E941508CEC032
:100C0A00E33741F40E940F080E941B080E94300734
:100C1A001E2F0AC0E03761F40E940F080E941B08C9
:100C2A000E943C071E2F086002600F7730E034C034
:100C3A00E43611F0E93611F4046002C0E53731F404
:100C4A00ECE8F0E0EE83FF8315E00CC0E83511F420
:100C5A00086003C0E83709F0A1C0E6E9F0E0EE83D6
:100C6A00FF8314E002FF14C00E940F080E942508A7
:100C7A00AB85AA233AF4EA85FB850E944208EA87F3
:100C8A00FB874DE2403011F01F5F01C00B7F04C0AB
:100C9A000E940F080E94250800FD11C0151778F45C
:100CAA0007FF08C002FF04C00B7F242F115001C0A8
:100CBA0020E301C020E20E9408085150EFCF312FF3
:100CCA0001FF17C03030A1F003FF06C0EE81FF819B
:100CDA002591EE83FF8305C0AE81BF812D91AE833E
:100CEA00BF830E940808503009F051503150EACFB2
:100CFA004BC020E3EE81FF810E948608E887F987CE
:100D0A00EE81FF813296EE83FF83E885F985AA8515
:100D1A00BB85AE17BF0750F02F5FA885B985EA8556
:100D2A00FB85EA1BFB0BEA87FB87EFCF2A3328F008
:100D3A0003FF02C0295F01C0295D04FD1AC02133E7
:100D4A0020F4A885B985119709F409C0531710F042
:100D5A0000FF01C013C020E207FF0BC020E30061BF
:100D6A0002FF07C00B7F4A930E941508503009F012
:100D7A0051500E940808503009F051503150A8854E
:100D8A00B985129708F0B5CF00FF08C0503031F08E
:100D9A005150E0E2EA930E941508F8CF10E0E0CE45
:100DAA00AC85BD850E9482080E94960864960895C3
:100DBA00FF92F82E26970E9491080E942D083097DC
:100DCA0019F4EFEFFFEF23C0DE0116960E943E08EA
:100DDA008D010E942D08EE83FF83E0E0E887E98712
:100DEA00DE011A960E943E080E948208FA93EA934C
:100DFA001A930A93EFE6F5E0FA93EA93DE011A965C
:100E0A00A3DE9F01AE81BF81E0E0EC93F9010E946D
:100E1A0098082A96FF900895BA93AA93998188818F
:100E2A00009641F0BD81AC81FB81EA8161916D93AD
:100E3A000197E1F7FD81EC8126960895AA93A9917D
:100E4A00E991F991B081AB1729F03196BB23D1F71B
:100E5A00EE27FF270895BA93AA93A991B991EE278D
:100E6A00FF276D91662311F03196FBCF0895BA934F
:100E7A00AA93AA27BB27E991F9910590002011F0BE
:100E8A001196FBCFFD010895E0915806F09159069D
:100E9A0008953197AAE0B0E00E946108EF5DF94F2A
:100EAA00DF01E0915A06F0915B06089512B2E02F35
:100EBA00A1E00E9446080895EA93A0E00C94020576
:100ECA00EA93A1E00C940205EA93A2E00C940205CD
:100EDA00AAE0A09FF001A19FF00DEF5DF94FE20F8C
:100EEA00F31FA08108950E945C080E948A0884E08A
:100EFA000E94DD062896DE010C943005E091510629
:100F0A00F09152060895EDE2E0935506E0935606F5
:100F1A0008951124F801AFE3B6E00E945708089536
:100F2A00AAE0A49FF001A59FF00DEF5DF94F089587
:100F3A00AF81B885AE0FBF1F08950C90A3E5B6E048
:100F4A00A40DB51DEC91E0150895DB01EF81F8853C
:100F5A003196AE0FBF1F0895FA013196AAE0B0E0AC
:100F6A000E946108EF5DF94FE3CFFA013196AAE0DA
:100F7A00B0E00E946108EF5DF94FDF01EF81F8856B
:100F8A003196AE0FBF1F0895ED91FD913196FE93F4
:100F9A00EE930895FA013196AAE0B0E00E94610842
:100FAA00EF5DF94F0895AA81BB81EAE00E946908C2
:100FBA00EF5DF94F0895A881B981AE0FBF1FAC91BB
:100FCA000C941B05DF01E881F9813196AE0FBF1F32
:100FDA00AC910C941B05EA81FB813196AAE0B0E042
:100FEA000E946108EF5DF94F08950E94F604A3E09C
:100FFA00B0E00C943408A0E30E94E20488EC90E08C
:10100A000197F1F708952A93AD85BE85EF85F88992
:10101A0009950895E889F9893497E88BF98B089539
:10102A00AD85BE85EF85F88909950895A889B9899E
:10103A0014960E948208EE83FF83AE81BF810895D1
:10104A00A889B98914960E948208EA87FB870895BD
:10105A00DE011C960E943E080E948208089510969E
:10106A0039F0A89580ED97E00197F1F71197C9F744
:10107A0008950024AF0DB01D0895F195E195F04053
:10108A000895EE230E2EEA2F19F0EE0F0A94E9F7CF
:10109A000895EE230E2EFD0121F0EE0FFF1F0A9494
:1010AA00E1F70895EE0FFF1FEE0FFF1F08956F2F50
:1010BA00660F660B762F0895FA9FF02DEB9FF00DC1
:1010CA00EA9FE02DF10D08956E2F6A9FF0016B9F44
:1010DA00F00D089504D0F0DF0EF4CFDF0895E89400
:1010EA00F7FF02C0CADF6894B7FF06C0A095B095A3
:1010FA00119600F8039400FA0895ED91FC91119766
:10110A0008950590F491E02D08957A936A93FA93DD
:10111A00EA9308955A934A933A932A931A930A930D
:10112A0008955D814C813B812A8119810881089546
:00000001FF
