:0C0000000C9495000C9400000C9400007F
:10000C000C9400000C9400000C9400000C94000064
:10001C000C9400000C9400000C9400000C94000054
:10002C000C9400000C9400000C9400000C94000044
:10003C000C9400000C9400000C9400000C94000034
:10004C000C9400000C9400000C9400000C94000024
:10005C000C9400000C9400000C9400000C94000014
:10006C000C9400000C9400000C9400000C94000004
:10007C000C9400000C9400000C9400000C940000F4
:10008C001027E80364000A000100001000011000B2
:10009C000100000000003132333435363738392A4C
:1000AC003023202020202020202020202020202031
:1000BC002020202020202020202020202020202034
:1000CC00707265737320616E79206B657900746F43
:1000DC00207374617274002030313233343536370A
:1000EC0038390050313D25640050323D2564000004
:1000FC0080C0040004009E000C002305A2001E001A
:10010C002F05AE000E000005CC0009000E05DA002C
:10011C000C001705E30002004D05FC000000F894EC
:10012C00EE27ECBBF1E0F5BFE5BFE0936C008DE092
:10013C00A2E0BB27ED938A95E9F780E090E1A0E07F
:10014C00B1E0ED930197E9F7EEEFF0E08591959131
:10015C00009761F0A591B59105901590BF01F00144
:10016C0005900D920197E1F7FB01F0CFEFEFEDBF9A
:10017C00E0E1EEBFC0E0D5E00C94C400E0E0EABBE7
:10018C00EBBBEFE1E7BBE0E0E8BBEFE1E4BBE0E0B9
:10019C00E5BBEFE0E1BBE0EFE2BBE0E0E2B9E3B9E5
:1001AC00E0936100E0936200E0936400E0936500EB
:1001BC00E0BFE3BFE2BFE1BFEFBDEEBDEDBDECBD07
:1001CC00E7BDE6BDEBBDEABDE9BDE8BDE093790056
:1001DC00E0937800E5BDE4BDE3BDE0938B00E093D4
:1001EC008A00E0938900E0938800E0938100E0931B
:1001FC008000E0938700E0938600E0938500E09315
:10020C008400E0938300E0938200E7BFE0937D00DD
:10021C00E0936A00EABFE9BFEAB9E0939A00E0E82C
:10022C00E8B9E0E0E0BDE6B9EDB9E0937400A4E113
:10023C0007D146D057D088D0A0EDB7E00E946B0410
:10024C00F8CFFFCF0E94A20400E010E00430E0E001
:10025C001E07ACF50E941504E095E121E2BB20E0FD
:10026C0030E02330E0E03E071CF510B2F901349683
:10027C00A1E0B0E00E948504A12DB0E0EA23FB23AD
:10028C00309799F4A8ECB0E00E946B040E9415041E
:10029C00E129E2BBA3E0A09FF001A19FF00DED5D71
:1002AC00FA4FE20FF31FE0814BC02F5F3F4FD9CFC6
:1002BC000E941504E129E2BB0F5F1F4FC7CFC4CFCB
:1002CC008DD0E3E0EA93A1E07CD0A0E0B5E0A7D02C
:1002DC00E6E0EA93A2E075D0AEE0B5E0A0D0B2DFE4
:1002EC007DD008950E94A2040E941B04A7E1B5E0F2
:1002FC0096D000E010E00330E0E01E07FCF4E0E0F4
:10030C00EA93A02FAF5F5DD0A02FAF5C73D020E03D
:10031C0030E02A30E0E03E0774F4AAE0A09FF00140
:10032C00A19FF00DE15DFA4FE20FF31FA08162D0A7
:10033C002F5F3F4FEECF0F5F1F4FDDCF0E941B048F
:10034C000E94A904249608952697EFE0EA93A0E072
:10035C000E942004EFEEF0E0FA93EA93F2010E947F
:10036C002604EFE0EA93A1E00E942004E5EFF0E020
:10037C00FA93EA93F3010E9426040E941B0426962A
:10038C000895AA93EBB3EF70AE2FE881E07FEA2BD0
:10039C00EBBB8DE08A95F1F7DA9A8DE08A95F1F74F
:1003AC00DA988DE08A95F1F777C0AA93A881E9DFF6
:1003BC00E881E295E883A881E4DF85E88A95F1F786
:1003CC006BC0AA93E881F0E0E35BFA4FE081A9816E
:1003DC00AE0FEBDF9980888022960895A2E00E94F0
:1003EC003104ACE0E2DFA1E00E943104E0E08E2EAB
:1003FC009E2E0895AA93A881AA3011F09B1448F060
:10040C00E0E0EA938394A82DDCDFA881AA3009F4FC
:10041C0043C09394D89AA881C8DFD8983DC0BA93AA
:10042C00AA931A93A981BA81ED91A983BA831E2F3D
:10043C00E03019F0A12FDEDFF5CF18812396089557
:10044C00AA93EAB3E06FEABBD29AD09AD19ADA981F
:10045C00D898D998B880E881E058E0934F05E881A6
:10046C00E054E0935005A4E1B0E00E946B040E94BC
:10047C0037040E9437040E943704A0E282DF88EC24
:10048C0090E00197F1F7A8E290DFA4E08EDFA5E8F9
:10049C008CDFA6E08ADFA2DF21960895BA93AA9397
:1004AC001A930A93AA81BB8112960E9493043097E7
:1004BC0059F1AA81BB8114960E9493048F01309745
:1004CC0061F00230E0E01E0798F0F80131978F01DF
:1004DC00AA81BB811496ED93FC93AA81BB811296E1
:1004EC00ED91FD913196FE93EE933197AC81A08303
:1004FC00AA81BB810E949304FF232AF0ED91FD9108
:10050C003196FE93EE9306C0AA81BB81EFEFFFEF0D
:10051C00ED93FC931981088125960895BA93AA93BB
:10052C0026970E94A00410E0AC85BD85E0E0F0E0C9
:10053C00ED93FC93EA89FB893196EA8BFB8B31971F
:10054C00E4912E2FE03009F415C1E12FE03039F49D
:10055C00253211F411E002C00E943F040AC1E130BF
:10056C00A9F4253219F40E943F0402C112E040E0C4
:10057C0000E02D3211F401E0FCC02B3211F44BE2FF
:10058C00F8C0203211F440E2F4C002C0E23039F479
:10059C0050E013E0203311F40068EBC003C0E330EB
:1005AC0009F0E7C0203310F02A3308F007C0AAE0A6
:1005BC005A9F502DE22FE0535E0FDBC0E22FE33643
:1005CC0049F40E944604E889F989A481AA930E94FF
:1005DC004C04CEC0E33741F40E9446040E945204FE
:1005EC000E94FC031E2F0AC0E03761F40E944604EF
:1005FC000E9452040E9408041E2F086002600F77AC
:10060C0030E034C0E43611F0E93611F4046002C075
:10061C00E53731F4ECE8F0E0EE83FF8315E00CC035
:10062C00E83511F4086003C0E83709F0A1C0E6E929
:10063C00F0E0EE83FF8314E002FF14C00E94460436
:10064C000E945C04AB85AA233AF4EA85FB850E94E0
:10065C007904EA87FB874DE2403011F01F5F01C03F
:10066C000B7F04C00E9446040E945C0400FD11C074
:10067C00151778F407FF08C002FF04C00B7F242F66
:10068C00115001C020E301C020E20E943F045150F0
:10069C00EFCF312F01FF17C03030A1F003FF06C0A0
:1006AC00EE81FF812591EE83FF8305C0AE81BF8172
:1006BC002D91AE83BF830E943F04503009F05150FE
:1006CC003150EACF4BC020E3EE81FF810E949704AA
:1006DC00E887F987EE81FF813296EE83FF83E88508
:1006EC00F985AA85BB85AE17BF0750F02F5FA8858B
:1006FC00B985EA85FB85EA1BFB0BEA87FB87EFCF05
:10070C002A3328F003FF02C0295F01C0295D04FDD4
:10071C001AC0213320F4A885B985119709F409C0B2
:10072C00531710F000FF01C013C020E207FF0BC0ED
:10073C0020E3006102FF07C00B7F4A930E944C0428
:10074C00503009F051500E943F04503009F0515084
:10075C003150A885B985129708F0B5CF00FF08C0B5
:10076C00503031F05150E0E2EA930E944C04F8CF43
:10077C0010E0E0CEAC85BD850E9493040E94A704D6
:10078C0064960895FF92F82E26970E94A2040E9468
:10079C006404309719F4EFEFFFEF23C0DE011696D7
:1007AC000E9475048D010E946404EE83FF83E0E0D7
:1007BC00E887E987DE011A960E9475040E9493046B
:1007CC00FA93EA931A930A93E4E5F2E0FA93EA9324
:1007DC00DE011A96A3DE9F01AE81BF81E0E0EC93AF
:1007EC00F9010E94A9042A96FF900895BA93AA933E
:1007FC00A991B991EE27FF276D91662311F03196DF
:10080C00FBCF0895BA93AA93AA27BB27E991F99134
:10081C000590002011F01196FBCFFD01089512B246
:10082C00E02FA1E00E947D040895E0E0EA93A0E0AF
:10083C000C94E7010E94E701FE01FA93EA930895F4
:10084C000E948E040E949B0484E00E94C803289698
:10085C00DE010C9415020E94DB01A3E0B0E00C94C5
:10086C006B04A0E30E94C70188EC90E00197F1F7BC
:10087C0008952A93AD85BE85EF85F889099508956D
:10088C00E889F9893497E88BF98B0895AD85BE8595
:10089C00EF85F88909950895A889B98914960E945D
:1008AC009304EE83FF83AE81BF810895A889B98933
:1008BC0014960E949304EA87FB870895DE011C9628
:1008CC000E9475040E9493040895109639F0A8951F
:1008DC0080ED97E00197F1F71197C9F7089500247F
:1008EC00AF0DB01D0895F195E195F0400895EE23FC
:1008FC000E2EEA2F19F0EE0F0A94E9F70895EE2365
:10090C000E2EFD0121F0EE0FFF1F0A94E1F7089562
:10091C006F2F660F660B762F0895ED91FC91119752
:10092C0008950590F491E02D08957A936A93FA93C3
:10093C00EA9308955A934A933A932A931A930A93F3
:10094C0008955D814C813B812A811981088108952C
:00000001FF
