:060000000C9435010C9484
:1000060000000C9400000C9400000C9400000C946A
:1000160000000C9400000C9400000C9400000C945A
:1000260000000C9400000C9400000C9400000C944A
:1000360000000C9400000C9400000C9400000C943A
:1000460000000C9400000C9400000C9400000C942A
:1000560000000C9400000C9400000C9400000C941A
:1000660000000C9400000C9400000C9400000C940A
:1000760000000C9400000C9400000C9400000C94FA
:1000860000000C9400001027E80364000A00010039
:100096000010000110000100000031323334353603
:1000A6003738392A302320202020202020202020E5
:1000B600202020202020202020202020202020203A
:1000C60020202020FFFFFFFFFFFF00000000FFFFB2
:1000D60041422D2D53616465676869616E007072D7
:1000E60065737320616E79206B657900746F207378
:1000F6007461727400203031323334353637383912
:1001060000412A50313D256400422350323D25648A
:10011600004E3D002D3E00202000696E76616C6920
:100126006420696E707574006F7574206F66207236
:10013600616E676520696E7075740063686F7365BC
:100146006E20626F782069732074616B656E00752E
:100156006E6B6E6F776E206572726F72007072656D
:10016600737320616E79206B6579200A746F206342
:100176006F6E74696E756500202020202020202077
:1001860020002A3D636F6E6669726D00232A005057
:10019600312069732077696E6E65722100503220B6
:1001A60069732077696E6E65722100206D617463D4
:1001B600682074696564210080C0020004009E0006
:1001C6000C00F105A0001E00FD05AC000C00390670
:1001D600CA0002004D06D60002004F06D8000A00EB
:1001E6000005DA000E000A05E40009001805F20011
:1001F6000C002105FB0003002D0517010300300547
:100206001A01030033051D010E00360520011300F7
:1002160044052E011400570541010E006B055501DA
:100226001B00790563010A0094057E010A009E05FC
:1002360088010300A80592010300AB0592010E0098
:10024600AE0595010E00BC05A3010D00CA05B1015E
:100256000E00D705E4000C00E50572010200560603
:10026600BE010000F894EE27ECBBF1E0F5BFE5BF58
:10027600E0936C008DE0A2E0BB27ED938A95E9F749
:1002860080E090E1A0E0B1E0ED930197E9F7E0ECC2
:10029600F1E085919591009761F0A591B591059052
:1002A6001590BF01F00105900D920197E1F7FB0152
:1002B600F0CFEFEFEDBFE0E1EEBFC0E0D5E00C948C
:1002C6006401E0E0EABBEBBBEFE1E7BBE0E0E8BBE3
:1002D600EFE1E4BBE0E0E5BBEFE0E1BBE0EFE2BB72
:1002E600E0E0E2B9E3B9E0936100E0936200E093F5
:1002F6006400E0936500E0BFE3BFE2BFE1BFEFBD8E
:10030600EEBDEDBDECBDE7BDE6BDEBBDEABDE9BDAD
:10031600E8BDE0937900E0937800E5BDE4BDE3BD78
:10032600E0938B00E0938A00E0938900E0938800D5
:10033600E0938100E0938000E0938700E0938600DD
:10034600E0938500E0938400E0938300E0938200CD
:10035600E7BFE0937D00E0936A00EABFE9BFEAB930
:10036600E0939A00E0E8E8B9E0E0E0BDE6B9EDB96F
:10037600E0937400A4E10E94CF0462D002D160D25F
:10038600E030E9F400240414050411F4EAE201C0A3
:10039600E3E27E2EFDD03CD10E94D7060E94DC0609
:1003A600EA0FFB1F7082A7D1E03031F4E1E0F0E004
:1003B600E419F5092F0101C0A9D07BD0E0CF5FD2A7
:1003C600DCCFFFCF0E94F70700E010E00430E0E04A
:1003D6001E07ACF50E94E906E095E121E2BB20E0AC
:1003E60030E02330E0E03E071CF510B2F901349608
:1003F600A1E0B0E00E94BA07A12DB0E0EA23FB23FA
:10040600309799F4AAEFB0E00E94A0070E94E9068F
:10041600E129E2BBA3E0A09FF001A19FF00DEF5000
:10042600FA4FE20FF31FE08126C22F5F3F4FD9CF6D
:100436000E94E906E129E2BB0F5F1F4FC7CFC4CF79
:100446000E949D04EBE1F6E0FA93EA93EDEFF5E006
:10045600FA93EA93AEE1B0E00E949F06E0E0E8BBC3
:10046600E5BBE0E0F0E0E0935406F0935506E09338
:100476005206F0935306E0934B06F0934C06E09336
:100486004906F0934A0644245524E6E00E94EF0606
:10049600A0E0B5E00E94BE04E4E00E94F306AAE0F4
:1004A600B5E00E94BE04E6E00E94F706A8E1B5E0CA
:1004B60010C20E94F707E0E00E94EF06A1E2B5E055
:1004C6000E94BE0400E010E00330E0E01E07D4F412
:1004D600E0E0EA93A02FAF5F0E949004A02FAF5CEC
:1004E6000E94A90420E030E02A30E0E03E073CF418
:1004F6000E94FB060E94A9042F5F3F4FF5CF0F5FB6
:100506001F4FE2CFE0E00E94EF06B5C12697EDE06F
:100516000E94EF06FE01FA93EA93E7E0F1E0FA9310
:10052600EA93E0914906F0914A060E940607E09197
:100536004906E8BBEDE00E94F306FE01FA93EA9352
:10054600EFE0F1E0FA93EA930E9411070E94060792
:10055600E0914B06E5BBE0E00E94EF060C94AF0687
:10056600EFE0EA93A3E00E949004ADE2B5E00E94BA
:10057600BE04E1E1EA93A3E00E949004AFE4B6E092
:1005860017C00E949D0495DFC1DFEADF01D012C0CB
:10059600EBE0EA93A42DC1D1A0E3B5E00E94BE042E
:1005A600EBE0EA93E1E0E419AE2FB7D1A3E3B5E0BF
:1005B6000E94BE04E0E00E94EF060895BA93AA9353
:1005C600B9D1E0E0E8BBE5BBE881F981E130A0E024
:1005D600FA0719F4A6E3B5E010C0E230A0E0FA0786
:1005E60019F4A4E4B5E009C0E330A0E0FA0719F471
:1005F600A7E5B5E002C0ABE6B5E0BDD1E0E00E94FC
:10060600F706A9E7B5E0B7D1DDDE94D1BADF90C130
:100616000E941607A5DFEBE00E94F706A4E9B5E005
:10062600AAD1D0DEE0934F069BDFCCDEE0935006E6
:1006360097DFEBE00E94F706AEE9B5E09CD1E0E07B
:100646000E94EF06BFDEEA3219F705D0E13001F766
:100656000E9416070895E8EAF5E0FA93EA93A09156
:100666004F060E94B106309751F4EBEAF5E0FA9393
:10067600EA93A09150060E94B106309711F0A1E0CE
:1006860034C0E0914F06F0E0F097E0935206F09305
:100696005306E0915006F0E0F097E0935406F0938D
:1006A60055060E94D706AAE0B0E00E94D507DF01F2
:1006B600E0915406F0915506EA0FFB1F4F01EAE060
:1006C600F0E08E169F062CF0E7E2F0E0E815F9055B
:1006D60014F4A2E00AC00E94D7060E94DC06AE0F00
:1006E600BF1FAC91A03229F0A3E0B0E067DFE0E0E5
:1006F6000895E1E008952397E0E0E8830E94F50776
:10070600E0915206E1503E2FE09154062E2F00E074
:1007160010E00430E0E01E070CF08DC0032E0E94AE
:100726001C07AE0FBF1F0E94E807E00DF11DAF01C9
:10073600022E0E941C07AE0FBF1F12960E94E807EA
:10074600E00DF11DEF83F88755235AF04230E0E0C3
:100756005E073CF4A885AA2322F0AF81B8851997D5
:100766000CF066C00E942307BF010E942B07AC91C4
:100776007A1629F00E942B070E943007F9F40E948E
:100786003807AC917A1629F00E9438070E94300784
:10079600A9F40E943F07AC917A1629F00E943F0700
:1007A6000E94300759F40E944807AC917A1629F046
:1007B6000E9448070E94300709F401C039C0F201BF
:1007C600A9E4B6E0EE0FFF1FAE0FBF1F0E9457074A
:1007D6000E9423070F01AF81B885EA0FFB1FFF9325
:1007E600EF93D001EF81F8853196EA0FFB1FCF0119
:1007F6000E945D07AF81B885EA0FFB1FBF010E940B
:100806005D07DF01EF81F8853196EA0FFB1F0F01C7
:10081600ADE4B6E0A40DB51DEC91D001EC93DB017F
:10082600EC93DC01EC93AF91BF91EC93E1E0EE83A6
:100836000F5F1F4F6ECFEE810E94FC072996089529
:100846000E94F70700E010E00430E0E01E0794F491
:1008560020E030E02A30E0E03E074CF40E94FB0640
:10086600A03211F4E0E007C02F5F3F4FF3CF0F5FD8
:100876001F4FEACFE1E00E94FE07249608955AD062
:10088600E4E00E94EF060E941107A0914906B0918C
:100896004A06EA17FB071CF4AEEAB5E00EC00E9452
:1008A6001107A0914906B0914A06AE17BF071CF47E
:1008B600ACEBB5E002C0AAECB5E05DD0E4E00E9486
:1008C600F306A7EDB5E057D0E5E00E94F706A5EEE2
:1008D600B5E051D077DD2ED00895AA93EBB3EF7033
:1008E600AE2FE881E07FEA2BEBBB8DE08A95F1F72E
:1008F600DA9A8DE08A95F1F7DA988DE08A95F1F724
:1009060077C0AA93A881E9DFE881E295E883A88108
:10091600E4DF85E88A95F1F76BC0AA93E881F0E0F9
:10092600EA5AF94FE081A981AE0FEBDF6980B88002
:1009360022960895A2E00E946607ACE0E2DFA1E0FD
:100946000E946607E0E0BE2E6E2E0895AA93A88147
:10095600AA3011F06A1448F0E0E0EA93B394AB2DA4
:10096600DCDFA881AA3009F443C06394D89AA88131
:10097600C8DFD8983DC0BA93AA931A93A981BA81C1
:10098600ED91A983BA831E2FE03019F0A12FDEDF87
:10099600F5CF188123960895AA93EAB3E06FEABBD0
:1009A600D29AD09AD19ADA98D898D998A880E8811C
:1009B600E058E0935806E881E054E0935906A4E134
:1009C600B0E00E94A0070E946C070E946C070E947C
:1009D6006C07A0E282DF88EC90E00197F1F7A8E2CD
:1009E60090DFA4E08EDFA5E88CDFA6E08ADFA2DF39
:1009F60021960895BA93AA931A930A93AA81BB8162
:100A060012960E94E807309729F1AA81BB811496B5
:100A16000E94E8078F01309761F00230E0E01E0780
:100A260080F0F80131978F01AA81BB811496ED936E
:100A3600FC93AA81BB8112960E9457073197AC811D
:100A4600A083AA81BB810E94E807FF2312F00E94BF
:100A5600570706C0AA81BB81EFEFFFEFED93FC932A
:100A66001981088125960895BA93AA9326970E941C
:100A7600F50710E0AC85BD85E0E0F0E0ED93FC9372
:100A8600EA89FB893196EA8BFB8B3197E4912E2F0D
:100A9600E03009F415C1E12FE03039F4253211F4C4
:100AA60011E002C00E9474070AC1E130A9F42532A0
:100AB60019F40E94740702C112E040E000E02D32F2
:100AC60011F401E0FCC02B3211F44BE2F8C02032E5
:100AD60011F440E2F4C002C0E23039F450E013E011
:100AE600203311F40068EBC003C0E33009F0E7C01F
:100AF600203310F02A3308F007C0AAE05A9F502D81
:100B0600E22FE0535E0FDBC0E22FE33649F40E948A
:100B16007B07E889F989A481AA930E948107CEC040
:100B2600E33741F40E947B070E9487070E94BE06B6
:100B36001E2F0AC0E03761F40E947B070E948707D8
:100B46000E94CA061E2F086002600F7730E034C08C
:100B5600E43611F0E93611F4046002C0E53731F4E9
:100B6600ECE8F0E0EE83FF8315E00CC0E83511F405
:100B7600086003C0E83709F0A1C0E6E9F0E0EE83BB
:100B8600FF8314E002FF14C00E947B070E949107B6
:100B9600AB85AA233AF4EA85FB850E94AE07EA876D
:100BA600FB874DE2403011F01F5F01C00B7F04C090
:100BB6000E947B070E94910700FD11C0151778F46B
:100BC60007FF08C002FF04C00B7F242F115001C08D
:100BD60020E301C020E20E9474075150EFCF312F6D
:100BE60001FF17C03030A1F003FF06C0EE81FF8180
:100BF6002591EE83FF8305C0AE81BF812D91AE8323
:100C0600BF830E947407503009F051503150EACF2B
:100C16004BC020E3EE81FF810E94EC07E887F9874D
:100C2600EE81FF813296EE83FF83E885F985AA85FA
:100C3600BB85AE17BF0750F02F5FA885B985EA853B
:100C4600FB85EA1BFB0BEA87FB87EFCF2A3328F0ED
:100C560003FF02C0295F01C0295D04FD1AC02133CC
:100C660020F4A885B985119709F409C0531710F027
:100C760000FF01C013C020E207FF0BC020E30061A4
:100C860002FF07C00B7F4A930E948107503009F08C
:100C960051500E947407503009F051503150A885C8
:100CA600B985129708F0B5CF00FF08C0503031F073
:100CB6005150E0E2EA930E948107F8CF10E0E0CEBF
:100CC600AC85BD850E94E8070E94FC0764960895DE
:100CD600FF92F82E26970E94F7070E9499073097F1
:100CE60019F4EFEFFFEF23C0DE0116960E94AA0764
:100CF6008D010E949907EE83FF83E0E0E887E9878C
:100D0600DE011A960E94AA070E94E807FA93EA9360
:100D16001A930A93EDEFF4E0FA93EA93DE011A963A
:100D2600A3DE9F01AE81BF81E0E0EC93F9010E9452
:100D3600FE072A96FF900895BA93AA93998188810F
:100D4600009641F0BD81AC81FB81EA8161916D9392
:100D56000197E1F7FD81EC8126960895AA93A99162
:100D6600E991F991B081AB1729F03196BB23D1F700
:100D7600EE27FF270895BA93AA93A991B991EE2772
:100D8600FF276D91662311F03196FBCF0895BA9334
:100D9600AA93AA27BB27E991F9910590002011F0A3
:100DA6001196FBCFFD010895E0915206F09153068E
:100DB60008953197AAE0B0E00E94CD07E55EF94FAD
:100DC600DF01E0915406F0915506089512B2E02F26
:100DD600A1E00E94B2070895EA93A0E00C94900463
:100DE600EA93A1E00C949004EA93A2E00C94900498
:100DF600AAE0A09FF001A19FF00DE55EF94FE20F7A
:100E0600F31FA08108950E94C8070E94F00784E09E
:100E16000E946B062896DE010C94BE04E0914B06F8
:100E2600F0914C060895EDE2E0934F06E0935006EC
:100E360008951124F801A9E3B6E00E94C3070895B6
:100E4600AAE0A49FF001A59FF00DE55EF94F089575
:100E5600AF81B885AE0FBF1F08950C90ADE4B6E024
:100E6600A40DB51DEC91E0150895DB01EF81F88521
:100E76003196AE0FBF1F0895FA013196AAE0B0E091
:100E86000E94CD07E55EF94FE3CFFA013196AAE05D
:100E9600B0E00E94CD07E55EF94FDF01EF81F885EE
:100EA6003196AE0FBF1F0895ED91FD913196FE93D9
:100EB600EE930895FA013196AAE0B0E00E94CD07BC
:100EC600E55EF94F08950E948404A3E0B0E00C9417
:100ED600A007A0E30E94700488EC90E00197F1F768
:100EE60008952A93AD85BE85EF85F88909950895FD
:100EF600E889F9893497E88BF98B0895AD85BE8525
:100F0600EF85F88909950895A889B98914960E94EC
:100F1600E807EE83FF83AE81BF810895A889B9896A
:100F260014960E94E807EA87FB870895DE011C965F
:100F36000E94AA070E94E8070895109639F0A8951E
:100F460080ED97E00197F1F71197C9F7089500240E
:100F5600AF0DB01D0895F195E195F0400895EE238B
:100F66000E2EEA2F19F0EE0F0A94E9F70895EE23F4
:100F76000E2EFD0121F0EE0FFF1F0A94E1F70895F2
:100F8600EE0FFF1FEE0FFF1F08956F2F660F660B04
:100F9600762F0895FA9FF02DEB9FF00DEA9FE02D36
:100FA600F10D089504D0F6DF0EF4D5DF0895E89428
:100FB600F7FF02C0D0DF6894B7FF06C0A095B095D2
:100FC600119600F8039400FA0895ED91FC9111979B
:100FD60008950590F491E02D08957A936A93FA9313
:100FE600EA9308955A934A933A932A931A930A9343
:100FF60008955D814C813B812A811981088108957C
:00000001FF
