:040000000C946600F6
:100004000C9400000C9400000C9400000C9400006C
:100014000C9400000C9400000C9400000C9400005C
:100024000C9400000C9400000C9400000C9400004C
:100034000C9400000C9400000C9400000C9400003C
:100044000C9400000C9400000C9400000C9400002C
:100054000C9400000C9400000C9400000C9400001C
:100064000C9400000C9400000C9400000C9400000C
:100074000C9400000C9400000C9400000C940000FC
:100084000C9400000C940000313233343536373888
:10009400392A3023707265737320616E79206B6521
:1000A4007900746F207374617274000080C00C0056
:1000B40017058C000E000005980009000E05A60027
:1000C40002002305B0000000F894EE27ECBBF1E039
:1000D400F5BFE5BFE0936C008DE0A2E0BB27ED9394
:1000E4008A95E9F780E090E1A0E0B1E0ED93019713
:1000F400E9F7E2EBF0E085919591009761F0A59125
:10010400B59105901590BF01F00105900D920197EE
:10011400E1F7FB01F0CFEFEFEDBFE0E1EEBFC0E0B0
:10012400D5E00C949500E0E0EABBEBBBEFE1E7BB64
:10013400E0E0E8BBEFE1E4BBE0E0E5BBEFE0E1BB1E
:10014400E0EFE2BBE0E0E2B9E3B9E0936100E09301
:100154006200E0936400E0936500E0BFE3BFE2BFA8
:10016400E1BFEFBDEEBDEDBDECBDE7BDE6BDEBBD52
:10017400EABDE9BDE8BDE0937900E0937800E5BD10
:10018400E4BDE3BDE0938B00E0938A00E093890033
:10019400E0938800E0938100E0938000E09387007F
:1001A400E0938600E0938500E0938400E09383006D
:1001B400E0938200E7BFE0937D00E0936A00EABF2A
:1001C400E9BFEAB9E0939A00E0E8E8B9E0E0E0BD0D
:1001D400E6B9EDB9E0937400A4E1B0D042D07ED08A
:1001E400A0EDB7E00E94DD01F9CFFFCF0E94F80136
:1001F40000E010E00430E0E01E0774F5CAD0E0959A
:10020400E121E2BB20E030E02330E0E03E07F4F4FB
:1002140010B2F9013496A1E0B0E00E94EF01A12DE3
:10022400B0E0EA23FB23309771F4B3D0E129E2BBB9
:10023400A3E0A09FF001A19FF00DE95EFA4FE20F49
:10024400F31FE0810AC02F5F3F4FDECFA2D0E12928
:10025400E2BB0F5F1F4FCECFCBCF0E94FD01249690
:100264000895E3E0EA93A1E02CD0A0E0B5E055D0F6
:10027400E6E0EA93A2E025D0AEE0B5E04ED0B6DFEA
:100284000895AA93EBB3EF70AE2FE881E07FEA2BD9
:10029400EBBB8DE08A95F1F7DA9A8DE08A95F1F758
:1002A400DA988DE08A95F1F772C0AA93A881E9DF04
:1002B400E881E295E883A881E4DF85E88A95F1F78F
:1002C40066C0AA93E881F0E0ED5DFA4FE081A98170
:1002D400AE0FEBDF5980488022960895A2E05FD0EC
:1002E400ACE0E3DFA1E05BD0E0E04E2E5E2E0895AB
:1002F400AA93A881AA3011F0571448F0E0E0EA93D9
:100304004394A42DDEDFA881AA3009F440C053949D
:10031400D89AA881CADFD8983AC0BA93AA931A93F4
:10032400A981BA81ED91A983BA831E2FE03019F017
:10033400A12FDEDFF5CF188123960895AA93EAB39F
:10034400E06FEABBD29AD09AD19ADA98D898D99821
:100354007880E881E058E0932505E881E054E09353
:100364002605A4E1B0E00E94DD011ED01DD01CD002
:10037400A0E287DF88EC90E00197F1F7A8E295DF2F
:10038400A4E093DFA5E891DFA6E08FDFA7DF219645
:10039400089512B2E02FA1E00E94E701089585DFDD
:1003A400A3E0B0E00C94DD01A0E36BDF88EC90E007
:1003B4000197F1F70895109639F0A89580ED97E02C
:1003C4000197F1F71197C9F70895EE230E2EEA2F3E
:1003D40019F0EE0F0A94E9F70895EE230E2EFD01AD
:1003E40021F0EE0FFF1F0A94E1F708953A932A9340
:1003F4001A930A9308953B812A81198108810895EB
:00000001FF
