:080000000C949D000C9400001B
:100008000C9400000C9400000C9400000C94000068
:100018000C9400000C9400000C9400000C94000058
:100028000C9400000C9400000C9400000C94000048
:100038000C9400000C9400000C9400000C94000038
:100048000C9400000C9400000C9400000C94000028
:100058000C9400000C9400000C9400000C94000018
:100068000C9400000C9400000C9400000C94000008
:100078000C9400000C9400000C9400000C940000F8
:100088000C9400001027E80364000A000100001027
:100098000001100001000000000031323334353611
:1000A8003738392A302320202020202020202020E3
:1000B8002020202020202020202020202020202038
:1000C800202020202D2D707265737320616E792099
:1000D8006B657900746F207374617274002030311D
:1000E80032333435363738390050313D25640050C5
:1000F800323D2564004E3D0080C0040004009E008F
:100108000C002605A2001E003205AE0002005005B4
:10011800CC000E000005CE0009000E05DC000C0026
:100128001705E50003002305FD0002005305000143
:100138000000F894EE27ECBBF1E0F5BFE5BFE093D3
:100148006C008DE0A2E0BB27ED938A95E9F780E08B
:1001580090E1A0E0B1E0ED930197E9F7E2E0F1E08A
:1001680085919591009761F0A591B59105901590AD
:10017800BF01F00105900D920197E1F7FB01F0CF67
:10018800EFEFEDBFE0E1EEBFC0E0D5E00C94CC00AE
:10019800E0E0EABBEBBBEFE1E7BBE0E0E8BBEFE1A7
:1001A800E4BBE0E0E5BBEFE0E1BBE0EFE2BBE0E0B1
:1001B800E2B9E3B9E0936100E0936200E093640080
:1001C800E0936500E0BFE3BFE2BFE1BFEFBDEEBD76
:1001D800EDBDECBDE7BDE6BDEBBDEABDE9BDE8BDE3
:1001E800E0937900E0937800E5BDE4BDE3BDE093DA
:1001F8008B00E0938A00E0938900E0938800E09305
:100208008100E0938000E0938700E0938600E0930C
:100218008500E0938400E0938300E0938200E7BFC9
:10022800E0937D00E0936A00EABFE9BFEAB9E09392
:100238009A00E0E8E8B9E0E0E0BDE6B9EDB9E0939E
:100248007400A4E11DD149D05AD08BD0A0E5B5E007
:10025800A5D0A0EDB7E00E948904F5CFFFCF0E949A
:10026800C00400E010E00430E0E01E07ACF50E9496
:100278003304E095E121E2BB20E030E02330E0E008
:100288003E071CF510B2F9013496A1E0B0E00E94D7
:10029800A304A12DB0E0EA23FB23309799F4A8EC3E
:1002A800B0E00E9489040E943304E129E2BBA3E084
:1002B800A09FF001A19FF00DEA5DFA4FE20FF31F36
:1002C800E0814BC02F5F3F4FD9CF0E943304E12913
:1002D800E2BB0F5F1F4FC7CFC4CFA0D0E3E0EA93C4
:1002E800A1E08FD0A0E0B5E0BAD0E6E0EA93A2E0C2
:1002F80088D0AEE0B5E0B3D0B2DF90D008950E94C8
:10030800C0040E943904A7E1B5E0A9D000E010E0DC
:100318000330E0E01E07FCF4E0E0EA93A02FAF5FB3
:1003280070D0A02FAF5C86D020E030E02A30E0E02B
:100338003E0774F4AAE0A09FF001A19FF00DEE5CC7
:10034800FA4FE20FF31FA08175D02F5F3F4FEECF1A
:100358000F5F1F4FDDCF0E9439040E94C704249607
:1003680008952697EFE0EA93A0E00E943E04E1EFAB
:10037800F0E0FA93EA93F2010E944404EFE0EA9372
:10038800A1E00E943E04E7EFF0E0FA93EA93F3015C
:100398000E9444040E94390426960895BA93AA93A9
:1003A800EFE0EA93A3E02DD0A3E2B5E058D0E1E175
:1003B800EA93A3E026D0A881B98151D00E943904DC
:1003C8002BC0AA93EBB3EF70AE2FE881E07FEA2B46
:1003D800EBBB8DE08A95F1F7DA9A8DE08A95F1F713
:1003E800DA988DE08A95F1F777C0AA93A881E9DFBA
:1003F800E881E295E883A881E4DF85E88A95F1F74A
:100408006BC0AA93E881F0E0ED5AFA4FE081A98128
:10041800AE0FEBDFB980A88022960895A2E00E9473
:100428004F04ACE0E2DFA1E00E944F04E0E0AE2E12
:10043800BE2E0895AA93A881AA3011F0BD1448F0E1
:10044800E0E0EA93A394AA2DDCDFA881AA3009F49E
:1004580043C0B394D89AA881C8DFD8983DC0BA934E
:10046800AA931A93A981BA81ED91A983BA831E2F01
:10047800E03019F0A12FDEDFF5CF1881239608951B
:10048800AA93EAB3E06FEABBD29AD09AD19ADA98E3
:10049800D898D998D880E881E058E0935505E88144
:1004A800E054E0935605A4E1B0E00E9489040E945C
:1004B80055040E9455040E945504A0E282DF88EC8E
:1004C80090E00197F1F7A8E290DFA4E08EDFA5E8BD
:1004D8008CDFA6E08ADFA2DF21960895BA93AA935B
:1004E8001A930A93AA81BB8112960E94B10430978D
:1004F80059F1AA81BB8114960E94B1048F013097EB
:1005080061F00230E0E01E0798F0F80131978F01A2
:10051800AA81BB811496ED93FC93AA81BB811296A4
:10052800ED91FD913196FE93EE933197AC81A083C6
:10053800AA81BB810E94B104FF232AF0ED91FD91AD
:100548003196FE93EE9306C0AA81BB81EFEFFFEFD1
:10055800ED93FC931981088125960895BA93AA937F
:1005680026970E94BE0410E0AC85BD85E0E0F0E06F
:10057800ED93FC93EA89FB893196EA8BFB8B3197E3
:10058800E4912E2FE03009F415C1E12FE03039F461
:10059800253211F411E002C00E945D040AC1E13065
:1005A800A9F4253219F40E945D0402C112E040E06A
:1005B80000E02D3211F401E0FCC02B3211F44BE2C3
:1005C800F8C0203211F440E2F4C002C0E23039F43D
:1005D80050E013E0203311F40068EBC003C0E330AF
:1005E80009F0E7C0203310F02A3308F007C0AAE06A
:1005F8005A9F502DE22FE0535E0FDBC0E22FE33607
:1006080049F40E946404E889F989A481AA930E94A4
:100618006A04CEC0E33741F40E9464040E94700467
:100628000E941A041E2F0AC0E03761F40E94640475
:100638000E9470040E9426041E2F086002600F7733
:1006480030E034C0E43611F0E93611F4046002C039
:10065800E53731F4ECE8F0E0EE83FF8315E00CC0F9
:10066800E83511F4086003C0E83709F0A1C0E6E9ED
:10067800F0E0EE83FF8314E002FF14C00E946404DC
:100688000E947A04AB85AA233AF4EA85FB850E9486
:100698009704EA87FB874DE2403011F01F5F01C0E5
:1006A8000B7F04C00E9464040E947A0400FD11C0FC
:1006B800151778F407FF08C002FF04C00B7F242F2A
:1006C800115001C020E301C020E20E945D04515096
:1006D800EFCF312F01FF17C03030A1F003FF06C064
:1006E800EE81FF812591EE83FF8305C0AE81BF8136
:1006F8002D91AE83BF830E945D04503009F05150A4
:100708003150EACF4BC020E3EE81FF810E94B5044F
:10071800E887F987EE81FF813296EE83FF83E885CB
:10072800F985AA85BB85AE17BF0750F02F5FA8854E
:10073800B985EA85FB85EA1BFB0BEA87FB87EFCFC8
:100748002A3328F003FF02C0295F01C0295D04FD98
:100758001AC0213320F4A885B985119709F409C076
:10076800531710F000FF01C013C020E207FF0BC0B1
:1007780020E3006102FF07C00B7F4A930E946A04CE
:10078800503009F051500E945D04503009F051502A
:100798003150A885B985129708F0B5CF00FF08C079
:1007A800503031F05150E0E2EA930E946A04F8CFE9
:1007B80010E0E0CEAC85BD850E94B1040E94C5045E
:1007C80064960895FF92F82E26970E94C0040E940E
:1007D8008204309719F4EFEFFFEF23C0DE0116967D
:1007E8000E9493048D010E948204EE83FF83E0E05F
:1007F800E887E987DE011A960E9493040E94B104F3
:10080800FA93EA931A930A93E2E7F2E0FA93EA93E7
:10081800DE011A96A3DE9F01AE81BF81E0E0EC9372
:10082800F9010E94C7042A96FF900895BA93AA93E3
:10083800A991B991EE27FF276D91662311F03196A2
:10084800FBCF0895BA93AA93AA27BB27E991F991F8
:100858000590002011F01196FBCFFD01089512B20A
:10086800E02FA1E00E949B040895E0E0EA93A0E055
:100878000C9405020E940502FE01FA93EA9308957A
:100888000E94AC040E94B90484E00E94E603289602
:10089800DE010C9433020E94F901A3E0B0E00C944D
:1008A8008904A0E30E94E50188EC90E00197F1F744
:1008B80008952A93AD85BE85EF85F8890995089531
:1008C800E889F9893497E88BF98B0895AD85BE8559
:1008D800EF85F88909950895A889B98914960E9421
:1008E800B104EE83FF83AE81BF810895A889B989D9
:1008F80014960E94B104EA87FB870895DE011C96CE
:100908000E9493040E94B1040895109639F0A895A6
:1009180080ED97E00197F1F71197C9F70895002442
:10092800AF0DB01D0895F195E195F0400895EE23BF
:100938000E2EEA2F19F0EE0F0A94E9F70895EE2328
:100948000E2EFD0121F0EE0FFF1F0A94E1F7089526
:100958006F2F660F660B762F0895ED91FC91119716
:1009680008950590F491E02D08957A936A93FA9387
:10097800EA9308955A934A933A932A931A930A93B7
:1009880008955D814C813B812A81198108810895F0
:00000001FF
