:020000000C945E
:1000020035010C9400000C9400000C9400000C9438
:1000120000000C9400000C9400000C9400000C945E
:1000220000000C9400000C9400000C9400000C944E
:1000320000000C9400000C9400000C9400000C943E
:1000420000000C9400000C9400000C9400000C942E
:1000520000000C9400000C9400000C9400000C941E
:1000620000000C9400000C9400000C9400000C940E
:1000720000000C9400000C9400000C9400000C94FE
:1000820000000C9400000C9400001027E8036400A8
:100092000A000100001000011000010000003132CE
:1000A200333435363738392A302320202020202097
:1000B200202020202020202020202020202020203E
:1000C2002020202020202020FFFFFFFFFFFF000034
:1000D2000000FFFF41422D2D53616465676869612D
:1000E2006E00707265737320616E79206B657900A2
:1000F200746F20737461727400203031323334357E
:100102003637383900412A50313D256400422350A8
:10011200323D2564004E3D002D3E00202000696ED8
:1001220076616C696420696E707574006F757420F5
:100132006F662072616E676520696E707574006308
:10014200686F73656E20626F782069732074616BCB
:10015200656E00756E6B6E6F776E206572726F7270
:1001620000707265737320616E79206B6579200A65
:10017200746F20636F6E74696E7565002020202095
:100182002020202020002A3D636F6E6669726D0078
:10019200232A0050312069732077696E6E657221BF
:1001A2000050322069732077696E6E6572210020DB
:1001B2006D617463682074696564210080C0020007
:1001C20004009E000C00F105A0001E00FD05AC001D
:1001D2000C003906CA0002004D06D60002004F0686
:1001E200D8000A000005DA000E000A05E400090042
:1001F2001805F2000C002105FB0003002D05170174
:10020200030030051A01030033051D010E003605F7
:100212002001130044052E011400570541010E0070
:100222006B0555011B00790563010A0094057E01E7
:100232000A009E0588010300A80592010300AB0590
:1002420092010E00AE0595010E00BC05A3010D0042
:10025200CA05B1010E00D705E4000C00E5057201E4
:1002620002005606BE010000F894EE27ECBBF1E056
:10027200F5BFE5BFE0936C008DE0A2E0BB27ED93F4
:100282008A95E9F780E090E1A0E0B1E0ED93019773
:10029200E9F7E0ECF1E085919591009761F0A59185
:1002A200B59105901590BF01F00105900D9201974F
:1002B200E1F7FB01F0CFEFEFEDBFE0E1EEBFC0E011
:1002C200D5E00C946401E0E0EABBEBBBEFE1E7BBF5
:1002D200E0E0E8BBEFE1E4BBE0E0E5BBEFE0E1BB7F
:1002E200E0EFE2BBE0E0E2B9E3B9E0936100E09362
:1002F2006200E0936400E0936500E0BFE3BFE2BF09
:10030200E1BFEFBDEEBDEDBDECBDE7BDE6BDEBBDB2
:10031200EABDE9BDE8BDE0937900E0937800E5BD70
:10032200E4BDE3BDE0938B00E0938A00E093890093
:10033200E0938800E0938100E0938000E0938700DF
:10034200E0938600E0938500E0938400E0938300CD
:10035200E0938200E7BFE0937D00E0936A00EABF8A
:10036200E9BFEAB9E0939A00E0E8E8B9E0E0E0BD6D
:10037200E6B9EDB9E0937400A4E10E94CD0462D025
:1003820002D15ED2E030E9F400240414050411F431
:10039200EAE201C0E3E27E2EFDD03CD10E94D50606
:1003A2000E94DA06EA0FFB1F7082A7D1E03031F417
:1003B200E1E0F0E0E419F5092F0101C0A9D07BD0FA
:1003C200E0CF5DD2DCCFFFCF0E94F50700E010E066
:1003D2000430E0E01E07ACF50E94E706E095E1215B
:1003E200E2BB20E030E02330E0E03E071CF510B233
:1003F200F9013496A1E0B0E00E94B807A12DB0E067
:10040200EA23FB23309799F4AAEFB0E00E949E07FB
:100412000E94E706E129E2BBA3E0A09FF001A19FB1
:10042200F00DEF50FA4FE20FF31FE08124C22F5F6D
:100432003F4FD9CF0E94E706E129E2BB0F5F1F4F72
:10044200C7CFC4CF0E949B04EBE1F6E0FA93EA9394
:10045200EDEFF5E0FA93EA93AEE1B0E00E949D067B
:10046200E0E0E8BBE5BBE0E0F0E0E0935406F093A7
:100472005506E0935206F0935306E0934B06F09331
:100482004C06E0934906F0934A0644245524E6E0DC
:100492000E94ED06A0E0B5E00E94BC04E4E00E94E8
:1004A200F106AAE0B5E00E94BC04E6E00E94F5066F
:1004B200A8E1B5E00EC20E94F507E0E00E94ED0659
:1004C200A1E2B5E00E94BC0400E010E00330E0E0ED
:1004D2001E07D4F4E0E0EA93A02FAF5F0E948E04DF
:1004E200A02FAF5C0E94A70420E030E02A30E0E0B9
:1004F2003E073CF40E94F9060E94A7042F5F3F4F7B
:10050200F5CF0F5F1F4FE2CFE0E00E94ED06B3C1CF
:100512002697EDE00E94ED06FE01FA93EA93E7E0EA
:10052200F1E0FA93EA93E0914906F0914A060E94BB
:100532000407E0914906E8BBEDE00E94F106FE01E6
:10054200FA93EA93EFE0F1E0FA93EA930E940F073D
:100552000E940407E0914B06E5BBE0E00E94ED0635
:100562000C94AD06EFE0EA93A3E00E948E04ADE2A4
:10057200B5E00E94BC04E1E1EA93A3E00E948E048C
:10058200AFE4B6E017C00E949B0495DFC1DFEADF4B
:1005920001D012C0EBE0EA93A42DBFD1A0E3B5E0F5
:1005A2000E94BC04EBE0EA93E1E0E419AE2FB5D17E
:1005B200A3E3B5E00E94BC04E0E00E94ED060895CA
:1005C200BA93AA93B7D1E0E0E8BBE5BBE881F98131
:1005D200E130A0E0FA0719F4A6E3B5E010C0E2307A
:1005E200A0E0FA0719F4A4E4B5E009C0E330A0E002
:1005F200FA0719F4A7E5B5E002C0ABE6B5E0BBD156
:10060200E0E00E94F506A9E7B5E0B5D1DDDE92D1C2
:10061200BADF8EC10E941407A5DFEBE00E94F50647
:10062200A4E9B5E0A8D1D0DEE0934F069BDFCCDE93
:10063200E093500697DFEBE00E94F506AEE9B5E0E5
:100642009AD1E0E00E94ED06BFDEEA3219F705D04A
:10065200E13001F70E9414070895E8EAF5E0FA9301
:10066200EA93A0914F060E94AF06309751F4EBEA4D
:10067200F5E0FA93EA93A09150060E94AF063097F4
:1006820011F0A1E034C0E0914F06F0E0F097E09362
:100692005206F0935306E0915006F0E0F097E09393
:1006A2005406F09355060E94D506AAE0B0E00E94D7
:1006B200D307DF01E0915406F0915506EA0FFB1FC4
:1006C2004F01EAE0F0E08E169F062CF0E7E2F0E040
:1006D200E815F90514F4A2E00AC00E94D5060E94AA
:1006E200DA06AE0FBF1FAC91A03229F0A3E0B0E052
:1006F20067DFE0E00895E1E0089522970E94F307A2
:10070200E0915206E1503E2FE09154062E2F00E078
:1007120010E00430E0E01E070CF08DC0032E0E94B2
:100722001A07AE0FBF1F0E94E607E00DF11DAF01D1
:10073200022E0E941A07AE0FBF1F12960E94E607F2
:10074200E00DF11DEE83FF8355235AF04230E0E0C5
:100752005E073CF4AF81AA2322F0AE81BF811997D4
:100762000CF066C00E942107BF010E942907AC91CC
:100772007A1629F00E9429070E942E07F9F40E9496
:100782003607AC917A1629F00E9436070E942E078E
:10079200A9F40E943D07AC917A1629F00E943D0708
:1007A2000E942E0759F40E944607AC917A1629F04E
:1007B2000E9446070E942E0709F401C039C0F201C7
:1007C200A9E4B6E0EE0FFF1FAE0FBF1F0E94550750
:1007D2000E9421070F01AE81BF81EA0FFB1FFF9329
:1007E200EF93D001EE81FF813196EA0FFB1FCF011B
:1007F2000E945B07AE81BF81EA0FFB1FBF010E940F
:100802005B07DF01EE81FF813196EA0FFB1F0F01CB
:10081200ADE4B6E0A40DB51DEC91D001EC93DB0183
:10082200EC93DC01EC93AF91BF91EC93E1E004C057
:100832000F5F1F4F6ECFE0E00E94FA0728960895DF
:100842000E94F50700E010E00430E0E01E0794F497
:1008520020E030E02A30E0E03E074CF40E94F90646
:10086200A03211F4E0E007C02F5F3F4FF3CF0F5FDC
:100872001F4FEACFE1E00E94FC07249608955AD068
:10088200E4E00E94ED060E940F07A0914906B09194
:100892004A06EA17FB071CF4AEEAB5E00EC00E9456
:1008A2000F07A0914906B0914A06AE17BF071CF484
:1008B200ACEBB5E002C0AAECB5E05DD0E4E00E948A
:1008C200F106A7EDB5E057D0E5E00E94F506A5EEEA
:1008D200B5E051D079DD2ED00895AA93EBB3EF7035
:1008E200AE2FE881E07FEA2BEBBB8DE08A95F1F732
:1008F200DA9A8DE08A95F1F7DA988DE08A95F1F728
:1009020077C0AA93A881E9DFE881E295E883A8810C
:10091200E4DF85E88A95F1F76BC0AA93E881F0E0FD
:10092200EA5AF94FE081A981AE0FEBDF6980B88006
:1009320022960895A2E00E946407ACE0E2DFA1E003
:100942000E946407E0E0BE2E6E2E0895AA93A8814D
:10095200AA3011F06A1448F0E0E0EA93B394AB2DA8
:10096200DCDFA881AA3009F443C06394D89AA88135
:10097200C8DFD8983DC0BA93AA931A93A981BA81C5
:10098200ED91A983BA831E2FE03019F0A12FDEDF8B
:10099200F5CF188123960895AA93EAB3E06FEABBD4
:1009A200D29AD09AD19ADA98D898D998A880E88120
:1009B200E058E0935806E881E054E0935906A4E138
:1009C200B0E00E949E070E946A070E946A070E9486
:1009D2006A07A0E282DF88EC90E00197F1F7A8E2D3
:1009E20090DFA4E08EDFA5E88CDFA6E08ADFA2DF3D
:1009F20021960895BA93AA931A930A93AA81BB8166
:100A020012960E94E607309729F1AA81BB811496BB
:100A12000E94E6078F01309761F00230E0E01E0786
:100A220080F0F80131978F01AA81BB811496ED9372
:100A3200FC93AA81BB8112960E9455073197AC8123
:100A4200A083AA81BB810E94E607FF2312F00E94C5
:100A5200550706C0AA81BB81EFEFFFEFED93FC9330
:100A62001981088125960895BA93AA9326970E9420
:100A7200F30710E0AC85BD85E0E0F0E0ED93FC9378
:100A8200EA89FB893196EA8BFB8B3197E4912E2F11
:100A9200E03009F415C1E12FE03039F4253211F4C8
:100AA20011E002C00E9472070AC1E130A9F42532A6
:100AB20019F40E94720702C112E040E000E02D32F8
:100AC20011F401E0FCC02B3211F44BE2F8C02032E9
:100AD20011F440E2F4C002C0E23039F450E013E015
:100AE200203311F40068EBC003C0E33009F0E7C023
:100AF200203310F02A3308F007C0AAE05A9F502D85
:100B0200E22FE0535E0FDBC0E22FE33649F40E948E
:100B12007907E889F989A481AA930E947F07CEC048
:100B2200E33741F40E9479070E9485070E94BC06C0
:100B32001E2F0AC0E03761F40E9479070E948507E0
:100B42000E94C8061E2F086002600F7730E034C092
:100B5200E43611F0E93611F4046002C0E53731F4ED
:100B6200ECE8F0E0EE83FF8315E00CC0E83511F409
:100B7200086003C0E83709F0A1C0E6E9F0E0EE83BF
:100B8200FF8314E002FF14C00E9479070E948F07BE
:100B9200AB85AA233AF4EA85FB850E94AC07EA8773
:100BA200FB874DE2403011F01F5F01C00B7F04C094
:100BB2000E9479070E948F0700FD11C0151778F473
:100BC20007FF08C002FF04C00B7F242F115001C091
:100BD20020E301C020E20E9472075150EFCF312F73
:100BE20001FF17C03030A1F003FF06C0EE81FF8184
:100BF2002591EE83FF8305C0AE81BF812D91AE8327
:100C0200BF830E947207503009F051503150EACF31
:100C12004BC020E3EE81FF810E94EA07E887F98753
:100C2200EE81FF813296EE83FF83E885F985AA85FE
:100C3200BB85AE17BF0750F02F5FA885B985EA853F
:100C4200FB85EA1BFB0BEA87FB87EFCF2A3328F0F1
:100C520003FF02C0295F01C0295D04FD1AC02133D0
:100C620020F4A885B985119709F409C0531710F02B
:100C720000FF01C013C020E207FF0BC020E30061A8
:100C820002FF07C00B7F4A930E947F07503009F092
:100C920051500E947207503009F051503150A885CE
:100CA200B985129708F0B5CF00FF08C0503031F077
:100CB2005150E0E2EA930E947F07F8CF10E0E0CEC5
:100CC200AC85BD850E94E6070E94FA0764960895E6
:100CD200FF92F82E26970E94F5070E9497073097F9
:100CE20019F4EFEFFFEF23C0DE0116960E94A8076A
:100CF2008D010E949707EE83FF83E0E0E887E98792
:100D0200DE011A960E94A8070E94E607FA93EA9368
:100D12001A930A93EBEFF4E0FA93EA93DE011A9640
:100D2200A3DE9F01AE81BF81E0E0EC93F9010E9456
:100D3200FC072A96FF900895BA93AA939981888115
:100D4200009641F0BD81AC81FB81EA8161916D9396
:100D52000197E1F7FD81EC8126960895AA93A99166
:100D6200E991F991B081AB1729F03196BB23D1F704
:100D7200EE27FF270895BA93AA93A991B991EE2776
:100D8200FF276D91662311F03196FBCF0895BA9338
:100D9200AA93AA27BB27E991F9910590002011F0A7
:100DA2001196FBCFFD010895E0915206F091530692
:100DB20008953197AAE0B0E00E94CB07E55EF94FB3
:100DC200DF01E0915406F0915506089512B2E02F2A
:100DD200A1E00E94B0070895EA93A0E00C948E046B
:100DE200EA93A1E00C948E04EA93A2E00C948E04A0
:100DF200AAE0A09FF001A19FF00DE55EF94FE20F7E
:100E0200F31FA08108950E94C6070E94EE0784E0A6
:100E12000E9469062896DE010C94BC04E0914B0600
:100E2200F0914C060895EDE2E0934F06E0935006F0
:100E320008951124F801A9E3B6E00E94C1070895BC
:100E4200AAE0A49FF001A59FF00DE55EF94F089579
:100E5200AE81BF81AE0FBF1F08950C90ADE4B6E026
:100E6200A40DB51DEC91E0150895DB01EE81FF8123
:100E72003196AE0FBF1F0895FA013196AAE0B0E095
:100E82000E94CB07E55EF94FE3CFFA013196AAE063
:100E9200B0E00E94CB07E55EF94FDF01EE81FF81F2
:100EA2003196AE0FBF1F0895ED91FD913196FE93DD
:100EB200EE930895FA013196AAE0B0E00E94CB07C2
:100EC200E55EF94F08950E948204A3E0B0E00C941D
:100ED2009E07A0E30E946E0488EC90E00197F1F770
:100EE20008952A93AD85BE85EF85F8890995089501
:100EF200E889F9893497E88BF98B0895AD85BE8529
:100F0200EF85F88909950895A889B98914960E94F0
:100F1200E607EE83FF83AE81BF810895A889B98970
:100F220014960E94E607EA87FB870895DE011C9665
:100F32000E94A8070E94E6070895109639F0A89526
:100F420080ED97E00197F1F71197C9F70895002412
:100F5200AF0DB01D0895F195E195F0400895EE238F
:100F62000E2EEA2F19F0EE0F0A94E9F70895EE23F8
:100F72000E2EFD0121F0EE0FFF1F0A94E1F70895F6
:100F8200EE0FFF1FEE0FFF1F08956F2F660F660B08
:100F9200762F0895FA9FF02DEB9FF00DEA9FE02D3A
:100FA200F10D089504D0F6DF0EF4D5DF0895E8942C
:100FB200F7FF02C0D0DF6894B7FF06C0A095B095D6
:100FC200119600F8039400FA0895ED91FC9111979F
:100FD20008950590F491E02D08957A936A93FA9317
:100FE200EA9308955A934A933A932A931A930A9347
:100FF20008955D814C813B812A8119810881089580
:00000001FF
