:0E0000000C9434010C9400000C9400000C943D
:10000E0000000C9400000C9400000C9400000C9462
:10001E0000000C9400000C9400000C9400000C9452
:10002E0000000C9400000C9400000C9400000C9442
:10003E0000000C9400000C9400000C9400000C9432
:10004E0000000C9400000C9400000C9400000C9422
:10005E0000000C9400000C9400000C9400000C9412
:10006E0000000C9400000C9400000C9400000C9402
:10007E0000000C9400000C9400000C94000010275B
:10008E00E80364000A0001000010000110000100E6
:10009E0000003132333435363738392A30232020B8
:1000AE002020202020202020202020202020202042
:1000BE00202020202020202020202020FFFFFFFFB6
:1000CE00FFFF00000000FFFF41422D2D53616465CC
:1000DE00676869616E00707265737320616E792056
:1000EE006B657900746F2073746172740020303107
:1000FE003233343536373839002A50313D256400D5
:10010E002350323D2564004E3D002D3E0020200040
:10011E00696E76616C696420696E707574006F75B6
:10012E0074206F662072616E676520696E707574DB
:10013E000063686F73656E20626F78206973207438
:10014E00616B656E00756E6B6E6F776E2065727289
:10015E006F7200707265737320616E79206B6579B2
:10016E00200A746F20636F6E74696E7565002020AF
:10017E0020202020202020002A3D636F6E666972A9
:10018E006D00232A0050312069732077696E6E65E9
:10019E0072210050322069732077696E6E6572216C
:1001AE0000206D617463682074696564210080C0ED
:1001BE00020004009E000C00F105A0001E00FD05CB
:1001CE00AC000C003906CA0002004D06D600020033
:1001DE004F06D8000A000005DA000E000A05E400FA
:1001EE0009001805F2000C002105FB0003002D0587
:1001FE001501030030051801030033051B010E0025
:10020E0036051E01130044052C01140057053F014D
:10021E000E006B0553011B00790561010A00940560
:10022E007C010A009E0586010300A80590010300CB
:10023E00AB0590010E00AE0593010E00BC05A101A9
:10024E000D00CA05AF010E00D705E4000C00E50550
:10025E00700102005606BC010000F894EE27ECBBBC
:10026E00F1E0F5BFE5BFE0936C008DE0A2E0BB27A7
:10027E00ED938A95E9F780E090E1A0E0B1E0ED938F
:10028E000197E9F7EEEBF1E085919591009761F01A
:10029E00A591B59105901590BF01F00105900D92B5
:1002AE000197E1F7FB01F0CFEFEFEDBFE0E1EEBF1D
:1002BE00C0E0D5E00C946301E0E0EABBEBBBEFE1FC
:1002CE00E7BBE0E0E8BBEFE1E4BBE0E0E5BBEFE07D
:1002DE00E1BBE0EFE2BBE0E0E2B9E3B9E09361003D
:1002EE00E0936200E0936400E0936500E0BFE3BF3B
:1002FE00E2BFE1BFEFBDEEBDEDBDECBDE7BDE6BDBE
:10030E00EBBDEABDE9BDE8BDE0937900E09378006E
:10031E00E5BDE4BDE3BDE0938B00E0938A00E0937E
:10032E008900E0938800E0938100E0938000E093E1
:10033E008700E0938600E0938500E0938400E093CD
:10034E008300E0938200E7BFE0937D00E0936A00B4
:10035E00EABFE9BFEAB9E0939A00E0E8E8B9E0E065
:10036E00E0BDE6B9EDB9E0937400A4E10E94AF04DC
:10037E0062D000D141D2E030E9F400240414050427
:10038E0011F4EAE201C0E3E27E2EFAD039D10E94E6
:10039E00B7060E94BC06EA0FFB1F7082A4D1E030A4
:1003AE0031F4E1E0F0E0E419F5092F0101C0A9D024
:1003BE007BD0E0CF40D2DCCFFFCF0E94BB0700E066
:1003CE0010E00430E0E01E07ACF50E94C906E0958F
:1003DE00E121E2BB20E030E02330E0E03E071CF5F7
:1003EE0010B2F9013496A1E0B0E00E947E07A12D73
:1003FE00B0E0EA23FB23309799F4AAEFB0E00E9415
:10040E0064070E94C906E129E2BBA3E0A09FF001A8
:10041E00A19FF00DEF50FA4FE20FF31FE08107C2DC
:10042E002F5F3F4FD9CF0E94C906E129E2BB0F5F74
:10043E001F4FC7CFC4CF0E947D04EBE1F6E0FA93C5
:10044E00EA93EDEFF5E0FA93EA93AEE1B0E00E94A5
:10045E007F06E0E0E8BBE5BBE0E0F0E0E0935406A9
:10046E00F0935506E0935206F0935306E0934B0635
:10047E00F0934C06E0934906F0934A064424552423
:10048E00E6E00E94CF06A0E0B5E00E949E04E4E004
:10049E000E94D306AAE0B5E00E949E04E6E00E9408
:1004AE00D706A8E1B5E0F1C10E94BB07E0E00E94CB
:1004BE00CF06A1E2B5E00E949E0400E010E00330FA
:1004CE00E0E01E07D4F4E0E0EA93A02FAF5F0E94B5
:1004DE007004A02FAF5C0E94890420E030E02A3027
:1004EE00E0E03E073CF40E94DB060E9489042F5F89
:1004FE003F4FF5CF0F5F1F4FE2CFE0E00E94CF06D8
:10050E0096C12697EEE00E94CF06FE01FA93EA937B
:10051E00E7E0F1E0FA93EA93E0914906F0914A069A
:10052E000E94E606E0914906E8BBEEE00E94D30683
:10053E00FE01FA93EA93EEE0F1E0FA93EA930E9459
:10054E00F1060E94E606E0914B06E5BBE0E00E9454
:10055E00CF060C948F06EFE0EA93A3E0BAD1ADE29A
:10056E00B5E00E949E04E1E1EA93A3E0B2D1AFE4CC
:10057E00B6E016C0BBD198DFC4DFEDDF01D012C0EC
:10058E00ECE0EA93A42DA5D1A0E3B5E00E949E0471
:10059E00ECE0EA93E1E0E419AE2F9BD1A3E3B5E0E2
:1005AE000E949E04E0E00E94CF060895BA93AA939B
:1005BE009DD1E0E0E8BBE5BBE881F981E130A0E048
:1005CE00FA0719F4A6E3B5E010C0E230A0E0FA078E
:1005DE0019F4A4E4B5E009C0E330A0E0FA0719F479
:1005EE00A7E5B5E002C0ABE6B5E0A1D1E0E00E9420
:1005FE00D706A9E7B5E09BD1E0DE78D1BBDF74C1A9
:10060E000E94F606A8DFEBE00E94D706A4E9B5E04B
:10061E008ED1D3DEE0934F069EDFCFDEE093500601
:10062E009ADFEBE00E94D706AEE9B5E080D1E0E0BC
:10063E000E94CF06C2DEEA3219F705D0E13001F78B
:10064E000E94F6060895E8EAF5E0FA93EA93A0917F
:10065E004F060E949106309751F4EBEAF5E0FA93BB
:10066E00EA93A09150060E949106309711F0A1E0F6
:10067E0034C0E0914F06F0E0F097E0935206F0930D
:10068E005306E0915006F0E0F097E0935406F09395
:10069E0055060E94B706AAE0B0E00E949907DF0156
:1006AE00E0915406F0915506EA0FFB1F4F01EAE068
:1006BE00F0E08E169F062CF0E7E2F0E0E815F90563
:1006CE0014F4A2E00AC00E94B7060E94BC06AE0F48
:1006DE00BF1FAC91A03229F0A3E0B0E067DFE0E0ED
:1006EE000895E1E0089522970E94B907E09152061D
:1006FE00E1503E2FE09154062E2F00E010E0043022
:10070E00E0E01E070CF073C0032E0E94FC06AE0F35
:10071E00BF1F0E94AC07E00DF11DAF01022E0E941B
:10072E00FC06AE0FBF1F12960E94AC07E00DF11D26
:10073E00EE83FF8355235AF04230E0E05E073CF42F
:10074E00AF81AA2322F0AE81BF8119970CF04CC065
:10075E000E9403070E940B0769F40E94120751F4CE
:10076E000E941B070E940B0729F40E941B070E9480
:10077E00120709F039C0F201A9E4B6E0EE0FFF1F2F
:10078E00AE0FBF1F0E9424070E9403070F01AE8108
:10079E00BF81EA0FFB1FFF93EF93D001EE81FF8124
:1007AE003196EA0FFB1FCF010E941B07AE81BF815E
:1007BE00EA0FFB1FBF010E941B07DF01EE81FF81C5
:1007CE003196EA0FFB1F0F01ADE4B6E0A40DB51D87
:1007DE00EC91D001EC93DB01EC93DC01EC93AF9147
:1007EE00BF91EC93E1E004C00F5F1F4F88CFE0E0B4
:1007FE000E94C007289608950E94BB0700E010E0F3
:10080E000430E0E01E0794F420E030E02A30E0E00F
:10081E003E074CF40E94DB06A03211F4E0E007C064
:10082E002F5F3F4FF3CF0F5F1F4FEACFE1E00E94E4
:10083E00C207249608955AD0E4E00E94CF060E9483
:10084E00F106A0914906B0914A06EA17FB071CF47F
:10085E00AEEAB5E00EC00E94F106A0914906B09135
:10086E004A06AE17BF071CF4ACEBB5E002C0AAEC0B
:10087E00B5E05DD0E4E00E94D306A7EDB5E057D019
:10088E00E5E00E94D706A5EEB5E051D096DD2ED05C
:10089E000895AA93EBB3EF70AE2FE881E07FEA2BB9
:1008AE00EBBB8DE08A95F1F7DA9A8DE08A95F1F738
:1008BE00DA988DE08A95F1F777C0AA93A881E9DFDF
:1008CE00E881E295E883A881E4DF85E88A95F1F76F
:1008DE006BC0AA93E881F0E0EA5AF94FE081A98152
:1008EE00AE0FEBDF6980B88022960895A2E00E94D9
:1008FE002A07ACE0E2DFA1E00E942A07E0E0BE2E6C
:10090E006E2E0895AA93A881AA3011F06A1448F0A9
:10091E00E0E0EA93B394AB2DDCDFA881AA3009F4B2
:10092E0043C06394D89AA881C8DFD8983DC0BA93C3
:10093E00AA931A93A981BA81ED91A983BA831E2F26
:10094E00E03019F0A12FDEDFF5CF18812396089540
:10095E00AA93EAB3E06FEABBD29AD09AD19ADA9808
:10096E00D898D998A880E881E058E0935806E88195
:10097E00E054E0935906A4E1B0E00E9464070E949F
:10098E0030070E9430070E943007A0E282DF88EC19
:10099E0090E00197F1F7A8E290DFA4E08EDFA5E8E2
:1009AE008CDFA6E08ADFA2DF21960895BA93AA9380
:1009BE001A930A93AA81BB8112960E94AC073097B4
:1009CE0029F1AA81BB8114960E94AC078F01309742
:1009DE0061F00230E0E01E0780F0F80131978F01E0
:1009EE00AA81BB811496ED93FC93AA81BB811296CA
:1009FE000E9424073197AC81A083AA81BB810E94FB
:100A0E00AC07FF2312F00E94240706C0AA81BB8107
:100A1E00EFEFFFEFED93FC93198108812596089572
:100A2E00BA93AA9326970E94B90710E0AC85BD85AC
:100A3E00E0E0F0E0ED93FC93EA89FB893196EA8BD6
:100A4E00FB8B3197E4912E2FE03009F415C1E12F85
:100A5E00E03039F4253211F411E002C00E9438075B
:100A6E000AC1E130A9F4253219F40E94380702C1F7
:100A7E0012E040E000E02D3211F401E0FCC02B3218
:100A8E0011F44BE2F8C0203211F440E2F4C002C07F
:100A9E00E23039F450E013E0203311F40068EBC07B
:100AAE0003C0E33009F0E7C0203310F02A3308F01A
:100ABE0007C0AAE05A9F502DE22FE0535E0FDBC015
:100ACE00E22FE33649F40E943F07E889F989A481B1
:100ADE00AA930E944507CEC0E33741F40E943F0718
:100AEE000E944B070E949E061E2F0AC0E03761F43B
:100AFE000E943F070E944B070E94AA061E2F086005
:100B0E0002600F7730E034C0E43611F0E93611F4AC
:100B1E00046002C0E53731F4ECE8F0E0EE83FF83C9
:100B2E0015E00CC0E83511F4086003C0E83709F091
:100B3E00A1C0E6E9F0E0EE83FF8314E002FF14C0EB
:100B4E000E943F070E945507AB85AA233AF4EA8517
:100B5E00FB850E947207EA87FB874DE2403011F059
:100B6E001F5F01C00B7F04C00E943F070E94550704
:100B7E0000FD11C0151778F407FF08C002FF04C06E
:100B8E000B7F242F115001C020E301C020E20E94F0
:100B9E0038075150EFCF312F01FF17C03030A1F081
:100BAE0003FF06C0EE81FF812591EE83FF8305C012
:100BBE00AE81BF812D91AE83BF830E943807503026
:100BCE0009F051503150EACF4BC020E3EE81FF8146
:100BDE000E94B007E887F987EE81FF813296EE8397
:100BEE00FF83E885F985AA85BB85AE17BF0750F050
:100BFE002F5FA885B985EA85FB85EA1BFB0BEA8783
:100C0E00FB87EFCF2A3328F003FF02C0295F01C014
:100C1E00295D04FD1AC0213320F4A885B9851197EA
:100C2E0009F409C0531710F000FF01C013C020E2F1
:100C3E0007FF0BC020E3006102FF07C00B7F4A9342
:100C4E000E944507503009F051500E94380750302D
:100C5E0009F051503150A885B985129708F0B5CFDB
:100C6E0000FF08C0503031F05150E0E2EA930E948C
:100C7E004507F8CF10E0E0CEAC85BD850E94AC07ED
:100C8E000E94C00764960895FF92F82E26970E9440
:100C9E00BB070E945D07309719F4EFEFFFEF23C0FB
:100CAE00DE0116960E946E078D010E945D07EE838F
:100CBE00FF83E0E0E887E987DE011A960E946E075F
:100CCE000E94AC07FA93EA931A930A93EDEDF4E0BF
:100CDE00FA93EA93DE011A96A3DE9F01AE81BF81DD
:100CEE00E0E0EC93F9010E94C2072A96FF90089566
:100CFE00BA93AA9399818881009641F0BD81AC8107
:100D0E00FB81EA8161916D930197E1F7FD81EC81A1
:100D1E0026960895AA93A991E991F991B081AB17FE
:100D2E0029F03196BB23D1F7EE27FF270895BA930A
:100D3E00AA93A991B991EE27FF276D91662311F021
:100D4E003196FBCF0895BA93AA93AA27BB27E991B0
:100D5E00F9910590002011F01196FBCFFD01089539
:100D6E00E0915206F091530608953197AAE0B0E053
:100D7E000E949107E55EF94FDF01E0915406F09174
:100D8E005506089512B2E02FA1E00E94760708954D
:100D9E00EA93A0E00C947004EA93A1E00C94700422
:100DAE00EA93A2E00C947004AAE0A09FF001A19F28
:100DBE00F00DE55EF94FE20FF31FA08108950E943A
:100DCE008C070E94B40784E00E944B062896DE0131
:100DDE000C949E04E0914B06F0914C060895EDE2C2
:100DEE00E0934F06E093500608951124F801A9E30D
:100DFE00B6E00E9487070895AAE0A49FF001A59F80
:100E0E00F00DE55EF94F0895AE81BF81AE0FBF1FA5
:100E1E00AC917A160895DF01EE81FF813196AE0F07
:100E2E00BF1FAC917A160895FA013196AAE0B0E090
:100E3E000E949107E55EF94F0895ED91FD9131966F
:100E4E00FE93EE9308950E946404A3E0B0E00C9428
:100E5E006407A0E30E94500488EC90E00197F1F73C
:100E6E0008952A93AD85BE85EF85F8890995089575
:100E7E00E889F9893497E88BF98B0895AD85BE859D
:100E8E00EF85F88909950895A889B98914960E9465
:100E9E00AC07EE83FF83AE81BF810895A889B9891F
:100EAE0014960E94AC07EA87FB870895DE011C9614
:100EBE000E946E070E94AC070895109639F0A8950F
:100ECE0080ED97E00197F1F71197C9F70895002487
:100EDE00AF0DB01D0895F195E195F0400895EE2304
:100EEE000E2EEA2F19F0EE0F0A94E9F70895EE236D
:100EFE000E2EFD0121F0EE0FFF1F0A94E1F708956B
:100F0E00EE0FFF1FEE0FFF1F08956F2F660F660B7C
:100F1E00762F0895FA9FF02DEB9FF00DEA9FE02DAE
:100F2E00F10D089504D0F6DF0EF4D5DF0895E894A0
:100F3E00F7FF02C0D0DF6894B7FF06C0A095B0954A
:100F4E00119600F8039400FA0895ED91FC91119713
:100F5E0008950590F491E02D08957A936A93FA938B
:100F6E00EA9308955A934A933A932A931A930A93BB
:100F7E0008955D814C813B812A81198108810895F4
:00000001FF
