:0E0000000C94FA000C9400000C9400000C9478
:10000E0000000C9400000C9400000C9400000C9462
:10001E0000000C9400000C9400000C9400000C9452
:10002E0000000C9400000C9400000C9400000C9442
:10003E0000000C9400000C9400000C9400000C9432
:10004E0000000C9400000C9400000C9400000C9422
:10005E0000000C9400000C9400000C9400000C9412
:10006E0000000C9400000C9400000C9400000C9402
:10007E0000000C9400000C9400000C94000010275B
:10008E00E80364000A0001000010000110000100E6
:10009E00040005000100002A31323334353637387A
:1000AE00392A30232020202020202020202020200C
:1000BE002020202020202020202020202020202032
:1000CE0020202D2D707265737320616E79206B6503
:1000DE007900746F20737461727400203031323382
:1000EE00343536373839002A50313D2564002350D7
:1000FE00323D2564004E3D002D3E00696E76616CEA
:10010E00696420696E707574006F7574206F662057
:10011E0072616E676520696E7075740063686F73C7
:10012E00656E20626F782069732074616B656E0056
:10013E00756E6B6E6F776E206572726F7200707275
:10014E0065737320616E79206B6579200A746F2058
:10015E00636F6E74696E756500202020202020204C
:10016E002020002A3D636F6E6669726D00232A009F
:10017E0080C0080004009E000C00A105A6001E0011
:10018E00AD05B2000200CB05D0000E000005D20076
:10019E0009000E05E0000C001705E9000300230519
:1001AE0003010300260506010E00290509011300AF
:1001BE003705170114004A052A010E005E053E019F
:1001CE001B006C054C010A00870567010A009105AA
:1001DE00710103009B057B0103009E057B0102005C
:1001EE00D0057E010000F894EE27ECBBF1E0F5BFE0
:1001FE00E5BFE0936C008DE0A2E0BB27ED938A95FE
:10020E00E9F780E090E1A0E0B1E0ED930197E9F726
:10021E00E0E8F1E085919591009761F0A591B59197
:10022E0005901590BF01F00105900D920197E1F731
:10023E00FB01F0CFEFEFEDBFE0E1EEBFC0E0D5E0A8
:10024E000C942901E0E0EABBEBBBEFE1E7BBE0E099
:10025E00E8BBEFE1E4BBE0E0E5BBEFE0E1BBE0EFE4
:10026E00E2BBE0E0E2B9E3B9E0936100E093620043
:10027E00E0936400E0936500E0BFE3BFE2BFE1BF3F
:10028E00EFBDEEBDEDBDECBDE7BDE6BDEBBDEABD20
:10029E00E9BDE8BDE0937900E0937800E5BDE4BDEB
:1002AE00E3BDE0938B00E0938A00E0938900E09336
:1002BE008800E0938100E0938000E0938700E09354
:1002CE008600E0938500E0938400E0938300E09342
:1002DE008200E7BFE0937D00E0936A00EABFE9BFCA
:1002EE00EAB9E0939A00E0E8E8B9E0E0E0BDE6B9EB
:1002FE00EDB9E0937400A4E10E944B034BD0BAD049
:10030E00E1E0F0E0E815F90511F4EAE201C0E3E2FC
:10031E00BE2EE8D0F3CFFFCF0E94F30500E010E031
:10032E000430E0E01E07ACF50E944805E095E1219F
:10033E00E2BB20E030E02330E0E03E071CF510B2D7
:10034E00F9013496A1E0B0E00E94CE05A12DB0E0F7
:10035E00EA23FB23309799F4AAEFB0E00E94B4058C
:10036E000E944805E129E2BBA3E0A09FF001A19FF6
:10037E00F00DEF55FA4FE20FF31FE0814AC02F5FE9
:10038E003F4FD9CF0E944805E129E2BB0F5F1F4FB7
:10039E00C7CFC4CF0E944E05E3E0EA93A1E02DD172
:1003AE00A0E0B5E060D1E6E00E945405AEE0B5E015
:1003BE000E94580508950E94F3050E945E05A7E16C
:1003CE00B5E051D100E010E00330E0E01E07FCF490
:1003DE00E0E0EA93A02FAF5F10D1A02FAF5C29D140
:1003EE0020E030E02A30E0E03E0774F4AAE0A09F5F
:1003FE00F001A19FF00DE355FA4FE20FF31FA0811C
:10040E0018D12F5F3F4FEECF0F5F1F4FDDCF0E94F2
:10041E005E050E94FA05249608952697EEE0EA936B
:10042E00A0E00E946305E5EFF0E0FA93EA93F20193
:10043E000E94690548BAEEE0EA93A1E00E946305C6
:10044E00ECEFF0E0FA93EA93F3010E94690565BAC6
:10045E000E945E0526960895EFE0EA93A3E0CDD0C4
:10046E00A3E2B5E000D1E1E1EA93A3E0C6D0ABECA4
:10047E00B5E00CC0D1D09FDFD0DFEEDF01D007C0DA
:10048E00ECE0EA93A82DB9D0A6E2B5E0ECD0E0E01E
:10049E00EA93A0E0B2D00895BA93AA930E944E05B3
:1004AE00E881F981E130A0E0FA0719F4A9E2B5E09C
:1004BE0010C0E230A0E0FA0719F4A7E3B5E009C0D6
:1004CE00E330A0E0FA0719F4AAE4B5E002C0AEE505
:1004DE00B5E0C9D0E0E00E945405ACE6B5E00E945C
:1004EE00580598C0EDE2E093CB050E947405A7E88D
:1004FE00B5E0B9D011DFE093CB05AEDF0DDF0E9482
:10050E007405A1E9B5E0AFD00E945E0505DFEA32C1
:10051E0049F703D0E13031F70895EBE9F5E0FA93AE
:10052E00EA93A091CB050E942205309751F4EEE993
:10053E00F5E0FA93EA93A091CC050E94220530973C
:10054E0011F0A1E034C0E091CB05E053AE2EE09166
:10055E00CC05E053DE2EAA2DEAE0EA9FF001DF0182
:10056E00ED2DF0E0EA0FFB1FE093CE05F093CF05E3
:10057E00A091CE05B091CF051A9734F0A091CE057B
:10058E00B091CF05989714F0A2E011C0EA2DF0E0DB
:10059E003197AAE0B0E00E94DC05E355FA4FDF0187
:1005AE00EE27AD0DBE1FAC91A03229F0A3E0B0E056
:1005BE0073DFE0E00895E1E00895AA93EBB3EF70E6
:1005CE00AE2FE881E07FEA2BEBBB8DE08A95F1F749
:1005DE00DA9A8DE08A95F1F7DA988DE08A95F1F73F
:1005EE0080C0AA93A881E9DFE881E295E883A8811B
:1005FE00E4DF85E88A95F1F774C0AA93E881F0E00C
:10060E00E053FA4FE081A981AE0FEBDFC980E8819C
:10061E00E093D40522960895A2E00E947A05ACE0FC
:10062E00E0DFA1E00E947A05E0E0E093D405CE2E53
:10063E000895AA93A881AA3021F0E091D505CE168F
:10064E0060F0E0E0EA93A091D405AF5FA093D405EB
:10065E00D4DFA881AA3009F444C0C394D89AA881E3
:10066E00C0DFD8983EC0BA93AA931A93A981BA81D3
:10067E00ED91A983BA831E2FE03019F0A12FD9DF97
:10068E00F5CF188123960895AA93EAB3E06FEABBDB
:10069E00D29AD09AD19ADA98D898D998E881E093DC
:1006AE00D505E058E093D205E881E054E093D305F8
:1006BE00A4E1B0E00E94B4050E9480050E9480056E
:1006CE000E948005A0E279DF88EC90E00197F1F7B7
:1006DE00A8E287DFA4E085DFA5E883DFA6E081DF5F
:1006EE009BDF21960895BA93AA931A930A93AA812F
:1006FE00BB8112960E94E405309759F1AA81BB8105
:10070E0014960E94E4058F01309761F00230E0E00C
:10071E001E0798F0F80131978F01AA81BB811496BC
:10072E00ED93FC93AA81BB811296ED91FD913196CA
:10073E00FE93EE933197AC81A083AA81BB810E9478
:10074E00E405FF232AF0ED91FD913196FE93EE9391
:10075E0006C0AA81BB81EFEFFFEFED93FC931981E9
:10076E00088125960895BA93AA9326970E94F105BB
:10077E0010E0AC85BD85E0E0F0E0ED93FC93EA89F6
:10078E00FB893196EA8BFB8B3197E4912E2FE0306B
:10079E0009F415C1E12FE03039F4253211F411E0DE
:1007AE0002C00E9488050AC1E130A9F4253219F46D
:1007BE000E94880502C112E040E000E02D3211F4E3
:1007CE0001E0FCC02B3211F44BE2F8C0203211F4E0
:1007DE0040E2F4C002C0E23039F450E013E02033BE
:1007EE0011F40068EBC003C0E33009F0E7C020331A
:1007FE0010F02A3308F007C0AAE05A9F502DE22FBE
:10080E00E0535E0FDBC0E22FE33649F40E948F0502
:10081E00E889F989A481AA930E949505CEC0E33791
:10082E0041F40E948F050E949B050E942F051E2FEA
:10083E000AC0E03761F40E948F050E949B050E945A
:10084E003B051E2F086002600F7730E034C0E4369F
:10085E0011F0E93611F4046002C0E53731F4ECE82A
:10086E00F0E0EE83FF8315E00CC0E83511F408606C
:10087E0003C0E83709F0A1C0E6E9F0E0EE83FF839C
:10088E0014E002FF14C00E948F050E94A505AB85DF
:10089E00AA233AF4EA85FB850E94C205EA87FB8704
:1008AE004DE2403011F01F5F01C00B7F04C00E946B
:1008BE008F050E94A50500FD11C0151778F407FFDE
:1008CE0008C002FF04C00B7F242F115001C020E38B
:1008DE0001C020E20E9488055150EFCF312F01FF59
:1008EE0017C03030A1F003FF06C0EE81FF812591C5
:1008FE00EE83FF8305C0AE81BF812D91AE83BF8392
:10090E000E948805503009F051503150EACF4BC04B
:10091E0020E3EE81FF810E94E805E887F987EE81EA
:10092E00FF813296EE83FF83E885F985AA85BB8524
:10093E00AE17BF0750F02F5FA885B985EA85FB85F6
:10094E00EA1BFB0BEA87FB87EFCF2A3328F003FF66
:10095E0002C0295F01C0295D04FD1AC0213320F4B5
:10096E00A885B985119709F409C0531710F000FF37
:10097E0001C013C020E207FF0BC020E3006102FF9D
:10098E0007C00B7F4A930E949505503009F05150D5
:10099E000E948805503009F051503150A885B98514
:1009AE00129708F0B5CF00FF08C0503031F051500B
:1009BE00E0E2EA930E949505F8CF10E0E0CEAC8518
:1009CE00BD850E94E4050E94F80564960895FF9285
:1009DE00F82E26970E94F3050E94AD05309719F464
:1009EE00EFEFFFEF23C0DE0116960E94BE058D01CC
:1009FE000E94AD05EE83FF83E0E0E887E987DE0124
:100A0E001A960E94BE050E94E405FA93EA931A9381
:100A1E000A93EAE7F3E0FA93EA93DE011A96A3DE6D
:100A2E009F01AE81BF81E0E0EC93F9010E94FA05CF
:100A3E002A96FF900895AA93A991E991F991B08110
:100A4E00AB1729F03196BB23D1F7EE27FF27089578
:100A5E00BA93AA93A991B991EE27FF276D916623B8
:100A6E0011F03196FBCF0895BA93AA93AA27BB270C
:100A7E00E991F9910590002011F01196FBCFFD013F
:100A8E00089512B2E02FA1E00E94C60508950E94BB
:100A9E001303E0E0E8BBE5BB0895EA93A2E00C94F3
:100AAE0004030E943A030E9493010C941303E0E0A6
:100ABE00EA93A0E00C9404030E940403FE01FA934F
:100ACE00EA9308950E94D7050E94EC0584E00E94E7
:100ADE00EE042896DE010C943A03E093CC050E94B6
:100AEE003302EBE0DACF0E94F802A3E0B0E00C9400
:100AFE00B405A0E30E94E40288EC90E00197F1F7C0
:100B0E0008952A93AD85BE85EF85F88909950895D8
:100B1E00E889F9893497E88BF98B0895AD85BE8500
:100B2E00EF85F88909950895A889B98914960E94C8
:100B3E00E405EE83FF83AE81BF810895A889B9894C
:100B4E0014960E94E405EA87FB870895DE011C9641
:100B5E000E94BE050E94E4050895109639F0A895EE
:100B6E0080ED97E00197F1F71197C9F708950024EA
:100B7E00AF0DB01D0895F195E195F0400895EE2367
:100B8E000E2EEA2F19F0EE0F0A94E9F70895EE23D0
:100B9E000E2EFD0121F0EE0FFF1F0A94E1F70895CE
:100BAE006F2F660F660B762F0895FA9FF02DEB9F31
:100BBE00F00DEA9FE02DF10D0895ED91FC91119746
:100BCE0008950590F491E02D08957A936A93FA931F
:100BDE00EA9308955A934A933A932A931A930A934F
:100BEE0008955D814C813B812A8119810881089588
:00000001FF
