:0A0000000C94D6000C9400000C9440
:10000A0000000C9400000C9400000C9400000C9466
:10001A0000000C9400000C9400000C9400000C9456
:10002A0000000C9400000C9400000C9400000C9446
:10003A0000000C9400000C9400000C9400000C9436
:10004A0000000C9400000C9400000C9400000C9426
:10005A0000000C9400000C9400000C9400000C9416
:10006A0000000C9400000C9400000C9400000C9406
:10007A0000000C9400000C9400000C9400000C94F6
:10008A0000001027E80364000A00010000100001C4
:10009A0010000100040005000100002A3132333447
:1000AA0035363738392A30232020202020202020B6
:1000BA002020202020202020202020202020202036
:1000CA002020202020202D2D707265737320616EF0
:1000DA0079206B657900746F2073746172740020E3
:1000EA0030313233343536373839002A50313D25EC
:1000FA0064002350323D2564004E3D002D3E0069C8
:10010A006E76616C696420696E7075740063686FDD
:10011A0073656E20626F782069732074616B656EF7
:10012A0000756E6B6E6F776E206572726F720070FB
:10013A007265737320616E79206B6579200A746F1A
:10014A0020636F6E74696E75650080C008000400D4
:10015A009E000C007405A6001E008005B200020075
:10016A009E05D0000E000005D20009000E05E00031
:10017A000C001705E9000300230503010300260507
:10018A0006010E00290509011400370517010E00A2
:10019A004B052B011B00590539010200A105540129
:1001AA000000F894EE27ECBBF1E0F5BFE5BFE09361
:1001BA006C008DE0A2E0BB27ED938A95E9F780E019
:1001CA0090E1A0E0B1E0ED930197E9F7E6E5F1E00F
:1001DA0085919591009761F0A591B591059015903B
:1001EA00BF01F00105900D920197E1F7FB01F0CFF5
:1001FA00EFEFEDBFE0E1EEBFC0E0D5E00C94050102
:10020A00E0E0EABBEBBBEFE1E7BBE0E0E8BBEFE134
:10021A00E4BBE0E0E5BBEFE0E1BBE0EFE2BBE0E03E
:10022A00E2B9E3B9E0936100E0936200E09364000D
:10023A00E0936500E0BFE3BFE2BFE1BFEFBDEEBD03
:10024A00EDBDECBDE7BDE6BDEBBDEABDE9BDE8BD70
:10025A00E0937900E0937800E5BDE4BDE3BDE09367
:10026A008B00E0938A00E0938900E0938800E09392
:10027A008100E0938000E0938700E0938600E0939A
:10028A008500E0938400E0938300E0938200E7BF57
:10029A00E0937D00E0936A00EABFE9BFEAB9E09320
:1002AA009A00E0E8E8B9E0E0E0BDE6B9EDB9E0932C
:1002BA007400A4E13CD14ED0C1D0E1E0F0E0E815F1
:1002CA00F90511F4EAE201C0E3E2BE2EA8EEB3E0BA
:1002DA000E94E204F0CFFFCF0E94190500E010E06F
:1002EA000430E0E01E07ACF50E948C04E095E121A1
:1002FA00E2BB20E030E02330E0E03E071CF510B21C
:10030A00F9013496A1E0B0E00E94FC04A12DB0E00E
:10031A00EA23FB23309799F4A8ECB0E00E94E204A8
:10032A000E948C04E129E2BBA3E0A09FF001A19FF7
:10033A00F00DEC58FA4FE20FF31FE0814EC02F5F29
:10034A003F4FD9CF0E948C04E129E2BB0F5F1F4FB8
:10035A00C7CFC4CFB4D0E0E0E8BBE5BBE3E0EA93A3
:10036A00A1E09ED0A0E0B5E0D1D0E6E0EA93A2E019
:10037A0097D0AEE0B5E0CAD0AFDFA1D008950E9411
:10038A0019050E949204A7E1B5E0C0D000E010E090
:10039A000330E0E01E07FCF4E0E0EA93A02FAF5F31
:1003AA007FD0A02FAF5C98D020E030E02A30E0E088
:1003BA003E0774F4AAE0A09FF001A19FF00DE05857
:1003CA00FA4FE20FF31FA08187D02F5F3F4FEECF86
:1003DA000F5F1F4FDDCF0E9492040E9420052496D2
:1003EA0008952697EEE0EA93A0E00E949704E5EFCD
:1003FA00F0E0FA93EA93F2010E949D0448BAEEE013
:10040A00EA93A1E00E949704ECEFF0E0FA93EA93F2
:10041A00F3010E949D0465BA0E94920426960895EB
:10042A00EFE0EA93A3E03CD0A3E2B5E06FD0E1E1CC
:10043A00EA93A3E035D0AEE9B5E00CC040D09FDF27
:10044A00D0DFEEDF01D007C0ECE0EA93A82D28D078
:10045A00A6E2B5E05BD0E0E0EA93A0E021D00895FF
:10046A00AA93EBB3EF70AE2FE881E07FEA2BEBBBE8
:10047A008DE08A95F1F7DA9A8DE08A95F1F7DA98A4
:10048A008DE08A95F1F780C0AA93A881E9DFE88117
:10049A00E295E883A881E4DF85E88A95F1F774C0DC
:1004AA00AA93E881F0E0EF55FA4FE081A981AE0FF7
:1004BA00EBDFA980E881E093A50522960895A2E0E2
:1004CA000E94A804ACE0E0DFA1E00E94A804E0E0FA
:1004DA00E093A505AE2E0895AA93A881AA3021F02B
:1004EA00E091A605AE1660F0E0E0EA93A091A505BA
:1004FA00AF5FA093A505D4DFA881AA3009F444C050
:10050A00A394D89AA881C0DFD8983EC0BA93AA9378
:10051A001A93A981BA81ED91A983BA831E2FE0307B
:10052A0019F0A12FD9DFF5CF188123960895AA9340
:10053A00EAB3E06FEABBD29AD09AD19ADA98D898FD
:10054A00D998E881E093A605E058E093A305E881ED
:10055A00E054E093A405A4E1B0E00E94E2040E9402
:10056A00AE040E94AE040E94AE04A0E279DF88ECD9
:10057A0090E00197F1F7A8E287DFA4E085DFA5E81C
:10058A0083DFA6E081DF9BDF21960895BA93AA93C1
:10059A001A930A93AA81BB8112960E940A05309780
:1005AA0059F1AA81BB8114960E940A058F013097DE
:1005BA0061F00230E0E01E0798F0F80131978F01F0
:1005CA00AA81BB811496ED93FC93AA81BB811296F2
:1005DA00ED91FD913196FE93EE933197AC81A08314
:1005EA00AA81BB810E940A05FF232AF0ED91FD91A1
:1005FA003196FE93EE9306C0AA81BB81EFEFFFEF1F
:10060A00ED93FC931981088125960895BA93AA93CC
:10061A0026970E94170510E0AC85BD85E0E0F0E062
:10062A00ED93FC93EA89FB893196EA8BFB8B319730
:10063A00E4912E2FE03009F415C1E12FE03039F4AE
:10064A00253211F411E002C00E94B6040AC1E13059
:10065A00A9F4253219F40E94B60402C112E040E05E
:10066A0000E02D3211F401E0FCC02B3211F44BE210
:10067A00F8C0203211F440E2F4C002C0E23039F48A
:10068A0050E013E0203311F40068EBC003C0E330FC
:10069A0009F0E7C0203310F02A3308F007C0AAE0B7
:1006AA005A9F502DE22FE0535E0FDBC0E22FE33654
:1006BA0049F40E94BD04E889F989A481AA930E9499
:1006CA00C304CEC0E33741F40E94BD040E94C904AA
:1006DA000E9473041E2F0AC0E03761F40E94BD0411
:1006EA000E94C9040E947F041E2F086002600F77CF
:1006FA0030E034C0E43611F0E93611F4046002C087
:10070A00E53731F4ECE8F0E0EE83FF8315E00CC046
:10071A00E83511F4086003C0E83709F0A1C0E6E93A
:10072A00F0E0EE83FF8314E002FF14C00E94BD04D0
:10073A000E94D304AB85AA233AF4EA85FB850E947A
:10074A00F004EA87FB874DE2403011F01F5F01C0D9
:10075A000B7F04C00E94BD040E94D30400FD11C097
:10076A00151778F407FF08C002FF04C00B7F242F77
:10077A00115001C020E301C020E20E94B60451508A
:10078A00EFCF312F01FF17C03030A1F003FF06C0B1
:10079A00EE81FF812591EE83FF8305C0AE81BF8183
:1007AA002D91AE83BF830E94B604503009F0515098
:1007BA003150EACF4BC020E3EE81FF810E940E0543
:1007CA00E887F987EE81FF813296EE83FF83E88519
:1007DA00F985AA85BB85AE17BF0750F02F5FA8859C
:1007EA00B985EA85FB85EA1BFB0BEA87FB87EFCF16
:1007FA002A3328F003FF02C0295F01C0295D04FDE6
:10080A001AC0213320F4A885B985119709F409C0C3
:10081A00531710F000FF01C013C020E207FF0BC0FE
:10082A0020E3006102FF07C00B7F4A930E94C304C2
:10083A00503009F051500E94B604503009F051501E
:10084A003150A885B985129708F0B5CF00FF08C0C6
:10085A00503031F05150E0E2EA930E94C304F8CFDD
:10086A0010E0E0CEAC85BD850E940A050E941E05F7
:10087A0064960895FF92F82E26970E9419050E9401
:10088A00DB04309719F4EFEFFFEF23C0DE01169671
:10089A000E94EC048D010E94DB04EE83FF83E0E0FA
:1008AA00E887E987DE011A960E94EC040E940A058D
:1008BA00FA93EA931A930A93EBECF2E0FA93EA9327
:1008CA00DE011A96A3DE9F01AE81BF81E0E0EC93C0
:1008DA00F9010E9420052A96FF900895BA93AA93D7
:1008EA00A991B991EE27FF276D91662311F03196F0
:1008FA00FBCF0895BA93AA93AA27BB27E991F99146
:10090A000590002011F01196FBCFFD01089512B257
:10091A00E02FA1E00E94F4040895E0E0EA93A0E049
:10092A000C9455020E945502FE01FA93EA93089527
:10093A000E9405050E94120584E00E943F04289641
:10094A00DE010C948B020E944902A3E0B0E00C94F1
:10095A00E204A0E30E94350288EC90E00197F1F7E7
:10096A0008952A93AD85BE85EF85F889099508957E
:10097A00E889F9893497E88BF98B0895AD85BE85A6
:10098A00EF85F88909950895A889B98914960E946E
:10099A000A05EE83FF83AE81BF810895A889B989CC
:1009AA0014960E940A05EA87FB870895DE011C96C1
:1009BA000E94EC040E940A050895109639F0A89541
:1009CA0080ED97E00197F1F71197C9F70895002490
:1009DA00AF0DB01D0895F195E195F0400895EE230D
:1009EA000E2EEA2F19F0EE0F0A94E9F70895EE2376
:1009FA000E2EFD0121F0EE0FFF1F0A94E1F7089574
:100A0A006F2F660F660B762F0895ED91FC91119763
:100A1A0008950590F491E02D08957A936A93FA93D4
:100A2A00EA9308955A934A933A932A931A930A9304
:100A3A0008955D814C813B812A811981088108953D
:00000001FF
