:0E0000000C9454000C9400000C9400000C941E
:10000E0000000C9400000C9400000C9400000C9462
:10001E0000000C9400000C9400000C9400000C9452
:10002E0000000C9400000C9400000C9400000C9442
:10003E0000000C9400000C9400000C9400000C9432
:10004E0000000C9400000C9400000C9400000C9422
:10005E0000000C9400000C9400000C9400000C9412
:10006E0000000C9400000C9400000C9400000C9402
:10007E0000000C9400000C9400000C94000031322F
:10008E00333435363738392A302380C00C0000051A
:10009E008C0002000C0598000000F894EE27ECBBD3
:1000AE00F1E0F5BFE5BFE0936C008DE0A2E0BB2769
:1000BE00ED938A95E9F780E090E1A0E0B1E0ED9351
:1000CE000197E9F7EAE9F0E085919591009761F0E3
:1000DE00A591B59105901590BF01F00105900D9277
:1000EE000197E1F7FB01F0CFEFEFEDBFE0E1EEBFDF
:1000FE00C0E0D5E00C948300E0E0EABBEBBBEFE19F
:10010E00E7BBE0E0E8BBEFE1E4BBE0E0E5BBEFE03E
:10011E00E1BBE0EFE2BBE0E0E2B9E3B9E0936100FE
:10012E00E0936200E0936400E0936500E0BFE3BFFC
:10013E00E2BFE1BFEFBDEEBDEDBDECBDE7BDE6BD7F
:10014E00EBBDEABDE9BDE8BDE0937900E093780030
:10015E00E5BDE4BDE3BDE0938B00E0938A00E09340
:10016E008900E0938800E0938100E0938000E093A3
:10017E008700E0938600E0938500E0938400E0938F
:10018E008300E0938200E7BFE0937D00E0936A0076
:10019E00EABFE9BFEAB9E0939A00E0E8E8B9E0E027
:1001AE00E0BDE6B9EDB9E0937400A4E18FD0E0E0D4
:1001BE00EA93A0E060D004D0AE2F74D0F8CFFFCF7A
:1001CE000E94C50100E010E00430E0E01E0774F567
:1001DE00A8D0E095E121E2BB20E030E02330E0E062
:1001EE003E07F4F410B2F9013496A1E0B0E00E949B
:1001FE00BC01A12DB0E0EA23FB23309771F491D01E
:10020E00E129E2BBA3E0A09FF001A19FF00DE05019
:10021E00FB4FE20FF31FE0810AC02F5F3F4FDECF8F
:10022E0080D0E129E2BB0F5F1F4FCECFCBCF0E9414
:10023E00CA0124960895AA93EBB3EF70AE2FE8810E
:10024E00E07FEA2BEBBB8DE08A95F1F7DA9A8DE031
:10025E008A95F1F7DA988DE08A95F1F760C0AA9346
:10026E00A881E9DFE881E295E883A881E4DF85E8EB
:10027E008A95F1F754C0AA93E881F0E0E45FFA4F53
:10028E00E081A981AE0FEBDF598048802296089558
:10029E00A2E04DD0ACE0E3DFA1E049D0E0E04E2E8D
:1002AE005E2E0895AA93A881AA3011F0571440F03B
:1002BE00E0E0EA934394A42DDEDFA881AA3079F121
:1002CE005394D89AA881CBDFD89829C0AA93EAB3C1
:1002DE00E06FEABBD29AD09AD19ADA98D898D99888
:1002EE007880E881E058E0930E05E881E054E093D1
:1002FE000F05A4E1B0E00E94AA011ED01DD01CD0B3
:10030E00A0E299DF88EC90E00197F1F7A8E2A7DF71
:10031E00A4E0A5DFA5E8A3DFA6E0A1DFB9DF219663
:10032E00089512B2E02FA1E00E94B401089597DF64
:10033E00A3E0B0E00C94AA01A0E37DDF88EC90E08E
:10034E000197F1F70895109639F0A89580ED97E092
:10035E000197F1F71197C9F70895EE230E2EEA2FA4
:10036E0019F0EE0F0A94E9F70895EE230E2EFD0113
:10037E0021F0EE0FFF1F0A94E1F708953A932A93A6
:10038E001A930A9308953B812A8119810881089551
:00000001FF
