:100000000C94CF000C9400000C9400000C940000A1
:100010000C9400000C9400000C9400000C94000060
:100020000C9400000C9400000C9400000C94000050
:100030000C9400000C9400000C9400000C94000040
:100040000C9400000C9400000C9400000C94000030
:100050000C9400000C9400000C9400000C94000020
:100060000C9400000C9400000C9400000C94000010
:100070000C9400000C9400000C9400000C94000000
:100080000C9400000C9400000C9400001027E8036E
:1000900064000A00010000100001100001000400CB
:1000A00005003132333435363738392A30232020B1
:1000B0002020202020202020202020202020202040
:1000C0002020202020202020202020202D2D707274
:1000D00065737320616E79206B657900746F20738E
:1000E0007461727400203031323334353637383928
:1000F0000050313D25640050323D2564004E3D00E6
:10010000696E76616C696420696E707574006368ED
:100110006F73656E20626F782069732074616B6500
:100120006E00756E6B6E6F776E206572726F720007
:10013000707265737320616E79206B6579200A7423
:100140006F20636F6E74696E7565000080C0040077
:1001500004009E000C007105A2001E007D05AE008B
:1001600002009B05CC000E000005CE0009000E0524
:10017000DC000C001705E50003002305FD000E0060
:1001800026050001140034050E010E004805220169
:100190001B005605300102009E054C010000F8943A
:1001A000EE27ECBBF1E0F5BFE5BFE0936C008DE01E
:1001B000A2E0BB27ED938A95E9F780E090E1A0E00B
:1001C000B1E0ED930197E9F7EEE4F1E085919591C7
:1001D000009761F0A591B59105901590BF01F001D0
:1001E00005900D920197E1F7FB01F0CFEFEFEDBF26
:1001F000E0E1EEBFC0E0D5E00C94FE00E0E0EABB39
:10020000EBBBEFE1E7BBE0E0E8BBEFE1E4BBE0E044
:10021000E5BBEFE0E1BBE0EFE2BBE0E0E2B9E3B970
:10022000E0936100E0936200E0936400E093650076
:10023000E0BFE3BFE2BFE1BFEFBDEEBDEDBDECBD92
:10024000E7BDE6BDEBBDEABDE9BDE8BDE0937900E1
:10025000E0937800E5BDE4BDE3BDE0938B00E0935F
:100260008A00E0938900E0938800E0938100E093A6
:100270008000E0938700E0938600E0938500E093A0
:100280008400E0938300E0938200E7BFE0937D0069
:10029000E0936A00EABFE9BFEAB9E0939A00E0E8B8
:1002A000E8B9E0E0E0BDE6B9EDB9E0937400A4E19F
:1002B00043D147D00E948B04A1E0B0E0BCD00E94A3
:1002C0008B04F7CFFFCF0E94240500E010E004303C
:1002D000E0E01E07ACF50E949104E095E121E2BB4D
:1002E00020E030E02330E0E03E071CF510B2F901D9
:1002F0003496A1E0B0E00E940705A12DB0E0EA230A
:10030000FB23309799F4A8ECB0E00E94ED040E9422
:100310009104E129E2BBA3E0A09FF001A19FF00DB1
:10032000EF58FA4FE20FF31FE0814AC02F5F3F4FB3
:10033000D9CF0E949104E129E2BB0F5F1F4FC7CFC5
:10034000C4CFC8D0E3E0EA93A1E0B7D0A0E0B5E025
:10035000E2D0E6E0EA93A2E0B0D0AEE0B5E00E94E1
:10036000970408950E9424050E949D04A7E1B5E02A
:10037000D2D000E010E00330E0E01E07FCF4E0E043
:10038000EA93A02FAF5F99D0A02FAF5CAFD020E051
:1003900030E02A30E0E03E0774F4AAE0A09FF001CC
:1003A000A19FF00DE358FA4FE20FF31FA0819ED0FA
:1003B0002F5F3F4FEECF0F5F1F4FDDCF0E949D0499
:1003C0000E942B05249608952697EFE0EA93A0E07B
:1003D0000E94A204E1EFF0E0FA93EA93F2010E9496
:1003E000A80448BAEFE0EA93A1E00E94A204E7EF74
:1003F000F0E0FA93EA93F3010E94A80465BA0E9420
:100400009D0426960895EFE0EA93A3E056D0A3E278
:10041000B5E081D0E1E1EA93A3E04FD0ABE9B5E0EC
:100420007AD004C057D09EDFCFDFEDDFE0E0EA9363
:10043000A0E043D00895BA93AA934CD0E0E0E8BB83
:10044000E5BBE881F981E130A0E0FA0719F4A6E202
:10045000B5E009C0E230A0E0FA0719F4A4E3B5E082
:1004600002C0A8E4B5E057D0E0E0EA93A2E025D0CE
:10047000A6E5B5E00E9497042BC0AA93EBB3EF70FA
:10048000AE2FE881E07FEA2BEBBB8DE08A95F1F798
:10049000DA9A8DE08A95F1F7DA988DE08A95F1F78E
:1004A00077C0AA93A881E9DFE881E295E883A88173
:1004B000E4DF85E88A95F1F76BC0AA93E881F0E064
:1004C000E256FA4FE081A981AE0FEBDFB980A88038
:1004D00022960895A2E00E94B304ACE0E2DFA1E01E
:1004E0000E94B304E0E0AE2EBE2E0895AA93A88128
:1004F000AA3011F0BD1448F0E0E0EA93A394AA2DCD
:10050000DCDFA881AA3009F443C0B394D89AA8814B
:10051000C8DFD8983DC0BA93AA931A93A981BA812B
:10052000ED91A983BA831E2FE03019F0A12FDEDFF1
:10053000F5CF188123960895AA93EAB3E06FEABB3A
:10054000D29AD09AD19ADA98D898D998D880E88156
:10055000E058E093A005E881E054E093A105A4E110
:10056000B0E00E94ED040E94B9040E94B9040E9408
:10057000B904A0E282DF88EC90E00197F1F7A8E2ED
:1005800090DFA4E08EDFA5E88CDFA6E08ADFA2DFA3
:1005900021960895BA93AA931A930A93AA81BB81CC
:1005A00012960E941505309759F1AA81BB811496C5
:1005B0000E9415058F01309761F00230E0E01E07C0
:1005C00098F0F80131978F01AA81BB811496ED93C1
:1005D000FC93AA81BB811296ED91FD913196FE9319
:1005E000EE933197AC81A083AA81BB810E9415054F
:1005F000FF232AF0ED91FD913196FE93EE9306C014
:10060000AA81BB81EFEFFFEFED93FC931981088185
:1006100025960895BA93AA9326970E94220510E082
:10062000AC85BD85E0E0F0E0ED93FC93EA89FB89C1
:100630003196EA8BFB8B3197E4912E2FE03009F451
:1006400015C1E12FE03039F4253211F411E002C078
:100650000E94C1040AC1E130A9F4253219F40E94B4
:10066000C10402C112E040E000E02D3211F401E0CB
:10067000FCC02B3211F44BE2F8C0203211F440E2FE
:10068000F4C002C0E23039F450E013E0203311F43A
:100690000068EBC003C0E33009F0E7C0203310F07E
:1006A0002A3308F007C0AAE05A9F502DE22FE053EA
:1006B0005E0FDBC0E22FE33649F40E94C804E889EC
:1006C000F989A481AA930E94CE04CEC0E33741F4F5
:1006D0000E94C8040E94D4040E9472041E2F0AC003
:1006E000E03761F40E94C8040E94D4040E947E0492
:1006F0001E2F086002600F7730E034C0E43611F03E
:10070000E93611F4046002C0E53731F4ECE8F0E0BA
:10071000EE83FF8315E00CC0E83511F4086003C0D8
:10072000E83709F0A1C0E6E9F0E0EE83FF8314E0CA
:1007300002FF14C00E94C8040E94DE04AB85AA23F5
:100740003AF4EA85FB850E94FB04EA87FB874DE2C9
:10075000403011F01F5F01C00B7F04C00E94C8042D
:100760000E94DE0400FD11C0151778F407FF08C0D1
:1007700002FF04C00B7F242F115001C020E301C0F1
:1007800020E20E94C1045150EFCF312F01FF17C06A
:100790003030A1F003FF06C0EE81FF812591EE838A
:1007A000FF8305C0AE81BF812D91AE83BF830E94C0
:1007B000C104503009F051503150EACF4BC020E312
:1007C000EE81FF810E941905E887F987EE81FF819C
:1007D0003296EE83FF83E885F985AA85BB85AE173F
:1007E000BF0750F02F5FA885B985EA85FB85EA1B16
:1007F000FB0BEA87FB87EFCF2A3328F003FF02C009
:10080000295F01C0295D04FD1AC0213320F4A885A9
:10081000B985119709F409C0531710F000FF01C002
:1008200013C020E207FF0BC020E3006102FF07C0F6
:100830000B7F4A930E94CE04503009F051500E9421
:10084000C104503009F051503150A885B985129734
:1008500008F0B5CF00FF08C0503031F05150E0E251
:10086000EA930E94CE04F8CF10E0E0CEAC85BD85BF
:100870000E9415050E94290564960895FF92F82E9E
:1008800026970E9424050E94E604309719F4EFEFA2
:10089000FFEF23C0DE0116960E94F7048D010E942F
:1008A000E604EE83FF83E0E0E887E987DE011A963D
:1008B0000E94F7040E941505FA93EA931A930A938B
:1008C000EAECF2E0FA93EA93DE011A96A3DE9F01C6
:1008D000AE81BF81E0E0EC93F9010E942B052A96DE
:1008E000FF900895BA93AA93A991B991EE27FF2793
:1008F0006D91662311F03196FBCF0895BA93AA93B8
:10090000AA27BB27E991F9910590002011F01196D3
:10091000FBCFFD0108950E941202A0EDB7E00C94F8
:10092000ED0412B2E02FA1E00E94FF0408950E949E
:100930008B020E9463010C946A02E0E0EA93A0E05B
:100940000C945D020E945D02FE01FA93EA93089501
:100950000E9410050E941D0584E00E943E04289616
:10096000DE010C948B020E945102A3E0B0E00C94D3
:10097000ED04A0E30E943D0288EC90E00197F1F7BE
:1009800008952A93AD85BE85EF85F8890995089568
:10099000E889F9893497E88BF98B0895AD85BE8590
:1009A000EF85F88909950895A889B98914960E9458
:1009B0001505EE83FF83AE81BF810895A889B989AB
:1009C00014960E941505EA87FB870895DE011C96A0
:1009D0000E94F7040E9415050895109639F0A89515
:1009E00080ED97E00197F1F71197C9F7089500247A
:1009F000AF0DB01D0895F195E195F0400895EE23F7
:100A00000E2EEA2F19F0EE0F0A94E9F70895EE235F
:100A10000E2EFD0121F0EE0FFF1F0A94E1F708955D
:100A20006F2F660F660B762F0895ED91FC9111974D
:100A300008950590F491E02D08957A936A93FA93BE
:100A4000EA9308955A934A933A932A931A930A93EE
:100A500008955D814C813B812A8119810881089527
:00000001FF
