:0A0000000C9481000C9400000C9495
:10000A0000000C9400000C9400000C9400000C9466
:10001A0000000C9400000C9400000C9400000C9456
:10002A0000000C9400000C9400000C9400000C9446
:10003A0000000C9400000C9400000C9400000C9436
:10004A0000000C9400000C9400000C9400000C9426
:10005A0000000C9400000C9400000C9400000C9416
:10006A0000000C9400000C9400000C9400000C9406
:10007A0000000C9400000C9400000C9400000C94F6
:10008A0000003132333435363738392A30232020CC
:10009A002020202020202020202020202020202056
:1000AA00202020202020202020202020707265730C
:1000BA007320616E79206B657900746F20737461A7
:1000CA007274002030313233343536373839000013
:1000DA0080C00C0023058C001E002F0598000E001E
:1000EA000005B60009000E05C4000C001705CD0076
:1000FA0002004D05DA000000F894EE27ECBBF1E0AF
:10010A00F5BFE5BFE0936C008DE0A2E0BB27ED935D
:10011A008A95E9F780E090E1A0E0B1E0ED930197DC
:10012A00E9F7ECEDF0E085919591009761F0A591E2
:10013A00B59105901590BF01F00105900D920197B8
:10014A00E1F7FB01F0CFEFEFEDBFE0E1EEBFC0E07A
:10015A00D5E00C94B000E0E0EABBEBBBEFE1E7BB13
:10016A00E0E0E8BBEFE1E4BBE0E0E5BBEFE0E1BBE8
:10017A00E0EFE2BBE0E0E2B9E3B9E0936100E093CB
:10018A006200E0936400E0936500E0BFE3BFE2BF72
:10019A00E1BFEFBDEEBDEDBDECBDE7BDE6BDEBBD1C
:1001AA00EABDE9BDE8BDE0937900E0937800E5BDDA
:1001BA00E4BDE3BDE0938B00E0938A00E0938900FD
:1001CA00E0938800E0938100E0938000E093870049
:1001DA00E0938600E0938500E0938400E093830037
:1001EA00E0938200E7BFE0937D00E0936A00EABFF4
:1001FA00E9BFEAB9E0939A00E0E8E8B9E0E0E0BDD7
:10020A00E6B9EDB9E0937400A4E1E8D042D053D046
:10021A00A0EDB7E00E943002F9CFFFCF0E944B0257
:10022A0000E010E00430E0E01E0794F502D1E0950A
:10023A00E121E2BB20E030E02330E0E03E0714F5A4
:10024A0010B2F9013496A1E0B0E00E944202A12D59
:10025A00B0E0EA23FB23309791F4A8ECB0E00E94C7
:10026A003002E7D0E129E2BBA3E0A09FF001A19F01
:10027A00F00DED5DFA4FE20FF31FE0814EC02F5FE4
:10028A003F4FDACFD6D0E129E2BB0F5F1F4FCACF6B
:10029A00C7CF74D0E3E0EA93A1E063D0A0E0B5E071
:1002AA008CD0E6E0EA93A2E05CD0AEE0B5E085D07F
:1002BA00B5DF64D008950E944B02E0E0EA93A0E023
:1002CA0050D0A7E1B5E079D000E010E00330E0E0DB
:1002DA001E07FCF4E0E0EA93A02FAF5F42D0A02F04
:1002EA00AF5C56D020E030E02A30E0E03E0774F4FC
:1002FA00AAE0A09FF001A19FF00DE15DFA4FE20F85
:10030A00F31FA08145D02F5F3F4FEECF0F5F1F4FE6
:10031A00DDCFE0E0EA93A0E024D00E9450022496C8
:10032A000895AA93EBB3EF70AE2FE881E07FEA2B32
:10033A00EBBB8DE08A95F1F7DA9A8DE08A95F1F7B1
:10034A00DA988DE08A95F1F772C0AA93A881E9DF5D
:10035A00E881E295E883A881E4DF85E88A95F1F7E8
:10036A0066C0AA93E881F0E0E35BFA4FE081A981D5
:10037A00AE0FEBDF5980488022960895A2E05FD045
:10038A00ACE0E3DFA1E05BD0E0E04E2E5E2E089504
:10039A00AA93A881AA3011F0571448F0E0E0EA9332
:1003AA004394A42DDEDFA881AA3009F440C05394F7
:1003BA00D89AA881CADFD8983AC0BA93AA931A934E
:1003CA00A981BA81ED91A983BA831E2FE03019F071
:1003DA00A12FDEDFF5CF188123960895AA93EAB3F9
:1003EA00E06FEABBD29AD09AD19ADA98D898D9987B
:1003FA007880E881E058E0934F05E881E054E09383
:10040A005005A4E1B0E00E9430021ED01DD01CD0DD
:10041A00A0E287DF88EC90E00197F1F7A8E295DF88
:10042A00A4E093DFA5E891DFA6E08FDFA7DF21969E
:10043A00089512B2E02FA1E00E943A02089585DFE2
:10044A00A3E0B0E00C943002A0E36BDF88EC90E00C
:10045A000197F1F70895109639F0A89580ED97E085
:10046A000197F1F71197C9F70895EE230E2EEA2F97
:10047A0019F0EE0F0A94E9F70895EE230E2EFD0106
:10048A0021F0EE0FFF1F0A94E1F708953A932A9399
:10049A001A930A9308953B812A8119810881089544
:00000001FF
